{
  "contractName": "Book",
  "abi": [
    {
      "constant": true,
      "inputs": [],
      "name": "name",
      "outputs": [
        {
          "name": "",
          "type": "string"
        }
      ],
      "payable": false,
      "stateMutability": "view",
      "type": "function"
    },
    {
      "constant": false,
      "inputs": [],
      "name": "buyCoin",
      "outputs": [
        {
          "name": "success",
          "type": "bool"
        }
      ],
      "payable": true,
      "stateMutability": "payable",
      "type": "function"
    },
    {
      "constant": false,
      "inputs": [
        {
          "name": "_spender",
          "type": "address"
        },
        {
          "name": "_value",
          "type": "uint256"
        }
      ],
      "name": "approve",
      "outputs": [
        {
          "name": "success",
          "type": "bool"
        }
      ],
      "payable": false,
      "stateMutability": "nonpayable",
      "type": "function"
    },
    {
      "constant": false,
      "inputs": [],
      "name": "withdrawCapital",
      "outputs": [],
      "payable": false,
      "stateMutability": "nonpayable",
      "type": "function"
    },
    {
      "constant": true,
      "inputs": [],
      "name": "totalSupply",
      "outputs": [
        {
          "name": "",
          "type": "uint256"
        }
      ],
      "payable": false,
      "stateMutability": "view",
      "type": "function"
    },
    {
      "constant": false,
      "inputs": [
        {
          "name": "_from",
          "type": "address"
        },
        {
          "name": "_to",
          "type": "address"
        },
        {
          "name": "_value",
          "type": "uint256"
        }
      ],
      "name": "transferFrom",
      "outputs": [
        {
          "name": "success",
          "type": "bool"
        }
      ],
      "payable": false,
      "stateMutability": "nonpayable",
      "type": "function"
    },
    {
      "constant": true,
      "inputs": [],
      "name": "decimals",
      "outputs": [
        {
          "name": "",
          "type": "uint8"
        }
      ],
      "payable": false,
      "stateMutability": "view",
      "type": "function"
    },
    {
      "constant": false,
      "inputs": [
        {
          "name": "readerAddress",
          "type": "address"
        }
      ],
      "name": "requestDelivery",
      "outputs": [
        {
          "name": "success",
          "type": "bool"
        }
      ],
      "payable": false,
      "stateMutability": "nonpayable",
      "type": "function"
    },
    {
      "constant": true,
      "inputs": [],
      "name": "version",
      "outputs": [
        {
          "name": "",
          "type": "string"
        }
      ],
      "payable": false,
      "stateMutability": "view",
      "type": "function"
    },
    {
      "constant": false,
      "inputs": [],
      "name": "setFirstEligible",
      "outputs": [
        {
          "name": "success",
          "type": "bool"
        }
      ],
      "payable": false,
      "stateMutability": "nonpayable",
      "type": "function"
    },
    {
      "constant": true,
      "inputs": [
        {
          "name": "_owner",
          "type": "address"
        }
      ],
      "name": "balanceOf",
      "outputs": [
        {
          "name": "balance",
          "type": "uint256"
        }
      ],
      "payable": false,
      "stateMutability": "view",
      "type": "function"
    },
    {
      "constant": false,
      "inputs": [],
      "name": "goalReached",
      "outputs": [
        {
          "name": "goalMet",
          "type": "bool"
        }
      ],
      "payable": false,
      "stateMutability": "nonpayable",
      "type": "function"
    },
    {
      "constant": true,
      "inputs": [],
      "name": "symbol",
      "outputs": [
        {
          "name": "",
          "type": "string"
        }
      ],
      "payable": false,
      "stateMutability": "view",
      "type": "function"
    },
    {
      "constant": false,
      "inputs": [
        {
          "name": "reader",
          "type": "address"
        }
      ],
      "name": "confirmDelivery",
      "outputs": [
        {
          "name": "success",
          "type": "bool"
        }
      ],
      "payable": false,
      "stateMutability": "nonpayable",
      "type": "function"
    },
    {
      "constant": false,
      "inputs": [
        {
          "name": "_to",
          "type": "address"
        },
        {
          "name": "_value",
          "type": "uint256"
        }
      ],
      "name": "transfer",
      "outputs": [
        {
          "name": "success",
          "type": "bool"
        }
      ],
      "payable": false,
      "stateMutability": "nonpayable",
      "type": "function"
    },
    {
      "constant": false,
      "inputs": [
        {
          "name": "_spender",
          "type": "address"
        },
        {
          "name": "_value",
          "type": "uint256"
        },
        {
          "name": "_extraData",
          "type": "bytes"
        }
      ],
      "name": "approveAndCall",
      "outputs": [
        {
          "name": "success",
          "type": "bool"
        }
      ],
      "payable": false,
      "stateMutability": "nonpayable",
      "type": "function"
    },
    {
      "constant": true,
      "inputs": [],
      "name": "getFirstInLine",
      "outputs": [
        {
          "name": "readerAddress",
          "type": "address"
        }
      ],
      "payable": false,
      "stateMutability": "view",
      "type": "function"
    },
    {
      "constant": true,
      "inputs": [
        {
          "name": "_owner",
          "type": "address"
        },
        {
          "name": "_spender",
          "type": "address"
        }
      ],
      "name": "allowance",
      "outputs": [
        {
          "name": "remaining",
          "type": "uint256"
        }
      ],
      "payable": false,
      "stateMutability": "view",
      "type": "function"
    },
    {
      "constant": false,
      "inputs": [
        {
          "name": "reader",
          "type": "address"
        }
      ],
      "name": "markShipped",
      "outputs": [
        {
          "name": "success",
          "type": "bool"
        }
      ],
      "payable": false,
      "stateMutability": "nonpayable",
      "type": "function"
    },
    {
      "inputs": [
        {
          "name": "_authorAddress",
          "type": "address"
        },
        {
          "name": "metadata",
          "type": "bytes"
        },
        {
          "name": "_readershipStake",
          "type": "uint256"
        },
        {
          "name": "_goal",
          "type": "uint256"
        },
        {
          "name": "_toBeShipped",
          "type": "uint256"
        },
        {
          "name": "_userCount",
          "type": "uint256"
        },
        {
          "name": "_eligibleCount",
          "type": "uint256"
        },
        {
          "name": "_initialAmount",
          "type": "uint256"
        },
        {
          "name": "_tokenName",
          "type": "string"
        },
        {
          "name": "_decimalUnits",
          "type": "uint8"
        },
        {
          "name": "_tokenSymbol",
          "type": "string"
        }
      ],
      "payable": false,
      "stateMutability": "nonpayable",
      "type": "constructor"
    },
    {
      "anonymous": false,
      "inputs": [
        {
          "indexed": false,
          "name": "reader",
          "type": "address"
        },
        {
          "indexed": false,
          "name": "amountPaid",
          "type": "uint256"
        }
      ],
      "name": "BoughtCoin",
      "type": "event"
    },
    {
      "anonymous": false,
      "inputs": [
        {
          "indexed": false,
          "name": "success",
          "type": "bool"
        }
      ],
      "name": "GoalMet",
      "type": "event"
    },
    {
      "anonymous": false,
      "inputs": [],
      "name": "NewQualifyingReaders",
      "type": "event"
    },
    {
      "anonymous": false,
      "inputs": [
        {
          "indexed": false,
          "name": "reader",
          "type": "address"
        }
      ],
      "name": "BookRequested",
      "type": "event"
    },
    {
      "anonymous": false,
      "inputs": [
        {
          "indexed": false,
          "name": "reader",
          "type": "address"
        }
      ],
      "name": "LogBookShipped",
      "type": "event"
    },
    {
      "anonymous": false,
      "inputs": [
        {
          "indexed": false,
          "name": "reader",
          "type": "address"
        }
      ],
      "name": "LogBookConfirmed",
      "type": "event"
    },
    {
      "anonymous": false,
      "inputs": [
        {
          "indexed": true,
          "name": "_from",
          "type": "address"
        },
        {
          "indexed": true,
          "name": "_to",
          "type": "address"
        },
        {
          "indexed": false,
          "name": "_value",
          "type": "uint256"
        }
      ],
      "name": "Transfer",
      "type": "event"
    },
    {
      "anonymous": false,
      "inputs": [
        {
          "indexed": true,
          "name": "_owner",
          "type": "address"
        },
        {
          "indexed": true,
          "name": "_spender",
          "type": "address"
        },
        {
          "indexed": false,
          "name": "_value",
          "type": "uint256"
        }
      ],
      "name": "Approval",
      "type": "event"
    }
  ],
  "bytecode": "0x60606040526040805190810160405280600481526020017f48302e31000000000000000000000000000000000000000000000000000000008152506006908051906020019062000051929190620001eb565b5034156200005e57600080fd5b604051620020ec380380620020ec833981016040528080519060200190919080518201919060200180519060200190919080519060200190919080519060200190919080519060200190919080519060200190919080519060200190919080518201919060200180519060200190919080518201919050508383838383600160003373ffffffffffffffffffffffffffffffffffffffff1673ffffffffffffffffffffffffffffffffffffffff168152602001908152602001600020819055508360008190555082600390805190602001906200013d929190620001eb565b5081600460006101000a81548160ff021916908360ff160217905550806005908051906020019062000171929190620001eb565b50505050508a600760006101000a81548173ffffffffffffffffffffffffffffffffffffffff021916908373ffffffffffffffffffffffffffffffffffffffff1602179055508860088190555087600a8190555085600c8190555084600d8190555086600b8190555050505050505050505050506200029a565b828054600181600116156101000203166002900490600052602060002090601f016020900481019282601f106200022e57805160ff19168380011785556200025f565b828001600101855582156200025f579182015b828111156200025e57825182559160200191906001019062000241565b5b5090506200026e919062000272565b5090565b6200029791905b808211156200029357600081600090555060010162000279565b5090565b90565b611e4280620002aa6000396000f300606060405260043610610107576000357c0100000000000000000000000000000000000000000000000000000000900463ffffffff16806306fdde031461010c578063091e9a601461019a578063095ea7b3146101bc57806317727a001461021657806318160ddd1461022b57806323b872dd14610254578063313ce567146102cd5780634791abe1146102fc57806354fd4d501461034d57806365ab841d146103db57806370a08231146104085780637d3d65221461045557806395d89b41146104825780639f7aee8214610510578063a9059cbb14610561578063cae9ca51146105bb578063d35e27d614610658578063dd62ed3e146106ad578063fc6dc17d14610719575b600080fd5b341561011757600080fd5b61011f61076a565b6040518080602001828103825283818151815260200191508051906020019080838360005b8381101561015f578082015181840152602081019050610144565b50505050905090810190601f16801561018c5780820380516001836020036101000a031916815260200191505b509250505060405180910390f35b6101a2610808565b604051808215151515815260200191505060405180910390f35b34156101c757600080fd5b6101fc600480803573ffffffffffffffffffffffffffffffffffffffff16906020019091908035906020019091905050610cce565b604051808215151515815260200191505060405180910390f35b341561022157600080fd5b610229610dc0565b005b341561023657600080fd5b61023e610e26565b6040518082815260200191505060405180910390f35b341561025f57600080fd5b6102b3600480803573ffffffffffffffffffffffffffffffffffffffff1690602001909190803573ffffffffffffffffffffffffffffffffffffffff16906020019091908035906020019091905050610e2c565b604051808215151515815260200191505060405180910390f35b34156102d857600080fd5b6102e0611098565b604051808260ff1660ff16815260200191505060405180910390f35b341561030757600080fd5b610333600480803573ffffffffffffffffffffffffffffffffffffffff169060200190919050506110ab565b604051808215151515815260200191505060405180910390f35b341561035857600080fd5b6103606111f1565b6040518080602001828103825283818151815260200191508051906020019080838360005b838110156103a0578082015181840152602081019050610385565b50505050905090810190601f1680156103cd5780820380516001836020036101000a031916815260200191505b509250505060405180910390f35b34156103e657600080fd5b6103ee61128f565b604051808215151515815260200191505060405180910390f35b341561041357600080fd5b61043f600480803573ffffffffffffffffffffffffffffffffffffffff169060200190919050506114d6565b6040518082815260200191505060405180910390f35b341561046057600080fd5b61046861151f565b604051808215151515815260200191505060405180910390f35b341561048d57600080fd5b61049561152e565b6040518080602001828103825283818151815260200191508051906020019080838360005b838110156104d55780820151818401526020810190506104ba565b50505050905090810190601f1680156105025780820380516001836020036101000a031916815260200191505b509250505060405180910390f35b341561051b57600080fd5b610547600480803573ffffffffffffffffffffffffffffffffffffffff169060200190919050506115cc565b604051808215151515815260200191505060405180910390f35b341561056c57600080fd5b6105a1600480803573ffffffffffffffffffffffffffffffffffffffff16906020019091908035906020019091905050611712565b604051808215151515815260200191505060405180910390f35b34156105c657600080fd5b61063e600480803573ffffffffffffffffffffffffffffffffffffffff1690602001909190803590602001909190803590602001908201803590602001908080601f0160208091040260200160405190810160405280939291908181526020018383808284378201915050505050509190505061186b565b604051808215151515815260200191505060405180910390f35b341561066357600080fd5b61066b611b0c565b604051808273ffffffffffffffffffffffffffffffffffffffff1673ffffffffffffffffffffffffffffffffffffffff16815260200191505060405180910390f35b34156106b857600080fd5b610703600480803573ffffffffffffffffffffffffffffffffffffffff1690602001909190803573ffffffffffffffffffffffffffffffffffffffff16906020019091905050611ba4565b6040518082815260200191505060405180910390f35b341561072457600080fd5b610750600480803573ffffffffffffffffffffffffffffffffffffffff16906020019091905050611c2b565b604051808215151515815260200191505060405180910390f35b60038054600181600116156101000203166002900480601f0160208091040260200160405190810160405280929190818152602001828054600181600116156101000203166002900480156108005780601f106107d557610100808354040283529160200191610800565b820191906000526020600020905b8154815290600101906020018083116107e357829003601f168201915b505050505081565b600080600160003373ffffffffffffffffffffffffffffffffffffffff1673ffffffffffffffffffffffffffffffffffffffff16815260200190815260200160002054141561095957606060405190810160405280600c5481526020016040805190810160405280600981526020017f416e6f6e796d6f757300000000000000000000000000000000000000000000008152508152602001600060048111156108ad57fe5b815250601260003373ffffffffffffffffffffffffffffffffffffffff1673ffffffffffffffffffffffffffffffffffffffff168152602001908152602001600020600082015181600001556020820151816001019080519060200190610915929190611d71565b5060408201518160020160006101000a81548160ff0219169083600481111561093a57fe5b0217905550905050600c60008154809291906001019190505550610a67565b600e73__BookQueueLib__________________________636cc5b745909133600160003373ffffffffffffffffffffffffffffffffffffffff1673ffffffffffffffffffffffffffffffffffffffff168152602001908152602001600020546000604051602001526040518463ffffffff167c0100000000000000000000000000000000000000000000000000000000028152600401808481526020018373ffffffffffffffffffffffffffffffffffffffff1673ffffffffffffffffffffffffffffffffffffffff168152602001828152602001935050505060206040518083038186803b1515610a4a57600080fd5b6102c65a03f41515610a5b57600080fd5b50505060405180519050505b34600160003373ffffffffffffffffffffffffffffffffffffffff1673ffffffffffffffffffffffffffffffffffffffff16815260200190815260200160002060008282540192505081905550600e73__BookQueueLib__________________________63c2b025a89091600160003373ffffffffffffffffffffffffffffffffffffffff1673ffffffffffffffffffffffffffffffffffffffff16815260200190815260200160002054336040518463ffffffff167c0100000000000000000000000000000000000000000000000000000000028152600401808481526020018381526020018273ffffffffffffffffffffffffffffffffffffffff1673ffffffffffffffffffffffffffffffffffffffff168152602001935050505060006040518083038186803b1515610b9c57600080fd5b6102c65a03f41515610bad57600080fd5b505050610bb861151f565b15610bfa577f1e61fe9a90d23ee89cf23cb1f66c1188b68372e59b6ad3470f3b26b564e966776001604051808215151515815260200191505060405180910390a15b600e73__BookQueueLib__________________________63c2b025a8909134336040518463ffffffff167c0100000000000000000000000000000000000000000000000000000000028152600401808481526020018381526020018273ffffffffffffffffffffffffffffffffffffffff1673ffffffffffffffffffffffffffffffffffffffff168152602001935050505060006040518083038186803b1515610ca357600080fd5b6102c65a03f41515610cb457600080fd5b505050346009600082825401925050819055506001905090565b600081600260003373ffffffffffffffffffffffffffffffffffffffff1673ffffffffffffffffffffffffffffffffffffffff16815260200190815260200160002060008573ffffffffffffffffffffffffffffffffffffffff1673ffffffffffffffffffffffffffffffffffffffff168152602001908152602001600020819055508273ffffffffffffffffffffffffffffffffffffffff163373ffffffffffffffffffffffffffffffffffffffff167f8c5be1e5ebec7d5bd14f71427d1e84f3dd0314c0f7b2291e5b200ac8c7c3b925846040518082815260200191505060405180910390a36001905092915050565b600760009054906101000a900473ffffffffffffffffffffffffffffffffffffffff1673ffffffffffffffffffffffffffffffffffffffff166108fc6009549081150290604051600060405180830381858888f193505050501515610e2457600080fd5b565b60005481565b600081600160008673ffffffffffffffffffffffffffffffffffffffff1673ffffffffffffffffffffffffffffffffffffffff1681526020019081526020016000205410158015610ef9575081600260008673ffffffffffffffffffffffffffffffffffffffff1673ffffffffffffffffffffffffffffffffffffffff16815260200190815260200160002060003373ffffffffffffffffffffffffffffffffffffffff1673ffffffffffffffffffffffffffffffffffffffff1681526020019081526020016000205410155b1515610f0457600080fd5b81600160008573ffffffffffffffffffffffffffffffffffffffff1673ffffffffffffffffffffffffffffffffffffffff1681526020019081526020016000206000828254019250508190555081600160008673ffffffffffffffffffffffffffffffffffffffff1673ffffffffffffffffffffffffffffffffffffffff1681526020019081526020016000206000828254039250508190555081600260008673ffffffffffffffffffffffffffffffffffffffff1673ffffffffffffffffffffffffffffffffffffffff16815260200190815260200160002060003373ffffffffffffffffffffffffffffffffffffffff1673ffffffffffffffffffffffffffffffffffffffff168152602001908152602001600020600082825403925050819055508273ffffffffffffffffffffffffffffffffffffffff168473ffffffffffffffffffffffffffffffffffffffff167fddf252ad1be2c89b69c2b068fc378daa952ba7f163c4a11628f55a4df523b3ef846040518082815260200191505060405180910390a3600190509392505050565b600460009054906101000a900460ff1681565b6000600160048111156110ba57fe5b601260008473ffffffffffffffffffffffffffffffffffffffff1673ffffffffffffffffffffffffffffffffffffffff16815260200190815260200160002060020160009054906101000a900460ff16600481111561111557fe5b14151561112157600080fd5b6002601260008473ffffffffffffffffffffffffffffffffffffffff1673ffffffffffffffffffffffffffffffffffffffff16815260200190815260200160002060020160006101000a81548160ff0219169083600481111561118057fe5b02179055507f2230584ab8fade77c64e5c255605d55e33bda0fd1da9b3b6b76e9554d36fc35133604051808273ffffffffffffffffffffffffffffffffffffffff1673ffffffffffffffffffffffffffffffffffffffff16815260200191505060405180910390a160019050919050565b60068054600181600116156101000203166002900480601f0160208091040260200160405190810160405280929190818152602001828054600181600116156101000203166002900480156112875780601f1061125c57610100808354040283529160200191611287565b820191906000526020600020905b81548152906001019060200180831161126a57829003601f168201915b505050505081565b60008061129a61151f565b15156112a557600080fd5b600b54600d54111515156112b857600080fd5b600d60008154809291906001019190505550600e73__BookQueueLib__________________________63358335c190916000604051602001526040518263ffffffff167c01000000000000000000000000000000000000000000000000000000000281526004018082815260200191505060206040518083038186803b151561134057600080fd5b6102c65a03f4151561135157600080fd5b5050506040518051905090506001601260008373ffffffffffffffffffffffffffffffffffffffff1673ffffffffffffffffffffffffffffffffffffffff16815260200190815260200160002060020160006101000a81548160ff021916908360048111156113bc57fe5b0217905550600e73__BookQueueLib__________________________636cc5b745909183600160008673ffffffffffffffffffffffffffffffffffffffff1673ffffffffffffffffffffffffffffffffffffffff168152602001908152602001600020546000604051602001526040518463ffffffff167c0100000000000000000000000000000000000000000000000000000000028152600401808481526020018373ffffffffffffffffffffffffffffffffffffffff1673ffffffffffffffffffffffffffffffffffffffff168152602001828152602001935050505060206040518083038186803b15156114b257600080fd5b6102c65a03f415156114c357600080fd5b5050506040518051905050600191505090565b6000600160008373ffffffffffffffffffffffffffffffffffffffff1673ffffffffffffffffffffffffffffffffffffffff168152602001908152602001600020549050919050565b6000600a546009541015905090565b60058054600181600116156101000203166002900480601f0160208091040260200160405190810160405280929190818152602001828054600181600116156101000203166002900480156115c45780601f10611599576101008083540402835291602001916115c4565b820191906000526020600020905b8154815290600101906020018083116115a757829003601f168201915b505050505081565b6000600360048111156115db57fe5b601260008473ffffffffffffffffffffffffffffffffffffffff1673ffffffffffffffffffffffffffffffffffffffff16815260200190815260200160002060020160009054906101000a900460ff16600481111561163657fe5b14151561164257600080fd5b6004601260008473ffffffffffffffffffffffffffffffffffffffff1673ffffffffffffffffffffffffffffffffffffffff16815260200190815260200160002060020160006101000a81548160ff021916908360048111156116a157fe5b02179055507f2fdd254ca56018a3eb3ea6a2f2dfb7a10081074b5b2e020f868b4c61565353c082604051808273ffffffffffffffffffffffffffffffffffffffff1673ffffffffffffffffffffffffffffffffffffffff16815260200191505060405180910390a160019050919050565b600081600160003373ffffffffffffffffffffffffffffffffffffffff1673ffffffffffffffffffffffffffffffffffffffff168152602001908152602001600020541015151561176257600080fd5b81600160003373ffffffffffffffffffffffffffffffffffffffff1673ffffffffffffffffffffffffffffffffffffffff1681526020019081526020016000206000828254039250508190555081600160008573ffffffffffffffffffffffffffffffffffffffff1673ffffffffffffffffffffffffffffffffffffffff168152602001908152602001600020600082825401925050819055508273ffffffffffffffffffffffffffffffffffffffff163373ffffffffffffffffffffffffffffffffffffffff167fddf252ad1be2c89b69c2b068fc378daa952ba7f163c4a11628f55a4df523b3ef846040518082815260200191505060405180910390a36001905092915050565b600082600260003373ffffffffffffffffffffffffffffffffffffffff1673ffffffffffffffffffffffffffffffffffffffff16815260200190815260200160002060008673ffffffffffffffffffffffffffffffffffffffff1673ffffffffffffffffffffffffffffffffffffffff168152602001908152602001600020819055508373ffffffffffffffffffffffffffffffffffffffff163373ffffffffffffffffffffffffffffffffffffffff167f8c5be1e5ebec7d5bd14f71427d1e84f3dd0314c0f7b2291e5b200ac8c7c3b925856040518082815260200191505060405180910390a38373ffffffffffffffffffffffffffffffffffffffff1660405180807f72656365697665417070726f76616c28616464726573732c75696e743235362c81526020017f616464726573732c627974657329000000000000000000000000000000000000815250602e01905060405180910390207c01000000000000000000000000000000000000000000000000000000009004338530866040518563ffffffff167c0100000000000000000000000000000000000000000000000000000000028152600401808573ffffffffffffffffffffffffffffffffffffffff1673ffffffffffffffffffffffffffffffffffffffff1681526020018481526020018373ffffffffffffffffffffffffffffffffffffffff1673ffffffffffffffffffffffffffffffffffffffff168152602001828051906020019080838360005b83811015611aac578082015181840152602081019050611a91565b50505050905090810190601f168015611ad95780820380516001836020036101000a031916815260200191505b5094505050505060006040518083038160008761646e5a03f1925050501515611b0157600080fd5b600190509392505050565b6000600e73__BookQueueLib__________________________63358335c190916000604051602001526040518263ffffffff167c01000000000000000000000000000000000000000000000000000000000281526004018082815260200191505060206040518083038186803b1515611b8457600080fd5b6102c65a03f41515611b9557600080fd5b50505060405180519050905090565b6000600260008473ffffffffffffffffffffffffffffffffffffffff1673ffffffffffffffffffffffffffffffffffffffff16815260200190815260200160002060008373ffffffffffffffffffffffffffffffffffffffff1673ffffffffffffffffffffffffffffffffffffffff16815260200190815260200160002054905092915050565b600060026004811115611c3a57fe5b601260008473ffffffffffffffffffffffffffffffffffffffff1673ffffffffffffffffffffffffffffffffffffffff16815260200190815260200160002060020160009054906101000a900460ff166004811115611c9557fe5b141515611ca157600080fd5b6003601260008473ffffffffffffffffffffffffffffffffffffffff1673ffffffffffffffffffffffffffffffffffffffff16815260200190815260200160002060020160006101000a81548160ff02191690836004811115611d0057fe5b02179055507f23ebbcb002c7eea3cd701655c9274556b48dfd35cdce070c2fbc9101b5f7159082604051808273ffffffffffffffffffffffffffffffffffffffff1673ffffffffffffffffffffffffffffffffffffffff16815260200191505060405180910390a160019050919050565b828054600181600116156101000203166002900490600052602060002090601f016020900481019282601f10611db257805160ff1916838001178555611de0565b82800160010185558215611de0579182015b82811115611ddf578251825591602001919060010190611dc4565b5b509050611ded9190611df1565b5090565b611e1391905b80821115611e0f576000816000905550600101611df7565b5090565b905600a165627a7a723058207b1d8c6fcd7809156310028f228d62e3c774c2b0e08f51ffee8fcf7272639b7a0029",
  "source": "pragma solidity ^0.4.15;\n\nimport \"./BookQueueLib.sol\";\nimport \"./BookDistLib.sol\";\nimport \"tokens/HumanStandardToken.sol\";\n\ncontract Book is HumanStandardToken {\n  using BookQueueLib for BookQueueLib.BookQueue;\n  address authorAddress;\n  uint readershipStake;\n  uint balance;\n  uint goal;\n  uint toBeShipped;\n  uint userCount;\n  uint eligibleCount;\n  BookQueueLib.BookQueue queue;\n\n  function Book\n    (\n     address _authorAddress,\n     bytes metadata,\n     uint _readershipStake,\n     uint _goal,\n     uint _toBeShipped,\n     uint _userCount,\n     uint _eligibleCount,\n     uint _initialAmount,\n     string _tokenName,\n     uint8 _decimalUnits,\n     string _tokenSymbol)\n    HumanStandardToken(_initialAmount, _tokenName, _decimalUnits, _tokenSymbol){\n    authorAddress = _authorAddress;\n    readershipStake = _readershipStake;\n    goal = _goal;\n    userCount = _userCount;\n    eligibleCount = _eligibleCount;\n    toBeShipped = _toBeShipped;\n  }\n\n  enum ReaderStatus { Waiting, Eligible, Requested, Shipped, Confirmed }\n\n  struct Reader {\n    uint id;\n    bytes readerUsername;      //Reader's username\n    ReaderStatus status;\n  }\n\n  event BoughtCoin(address reader, uint amountPaid);\n  event GoalMet(bool success);\n  event NewQualifyingReaders ();          //Some readers become eligible after goal is met\n  event BookRequested(address reader);    //Reader claims book\n  event LogBookShipped(address reader);   //Author sends shipping confirmation\n  event LogBookConfirmed(address reader);   //Author sends shipping confirmation\n\n  mapping (address => Reader) readers;\n\n  modifier goalMet {\n    require (goalReached());\n    _;\n  }\n\n  function goalReached()\n    returns (bool goalMet)\n  {\n    return balance >= goal;\n  }\n\n  function buyCoin()\n    public\n    payable\n    returns(bool success){\n\n    // Reader buys coins the first time\n    if (balances[msg.sender] == 0) {\n      // Add reader\n      readers[msg.sender] = Reader({ id: userCount, readerUsername: 'Anonymous', status: ReaderStatus.Waiting });\n      userCount++;\n\n      // Add the reader to the queue in the last position\n    } else { //Reader buys more coins later on\n      // Remove the reader to the queue he is a part of and move him to his new queue\n      queue.remove(msg.sender, int(balances[msg.sender]));\n    }\n\n    balances[msg.sender] += msg.value;\n    queue.addToQueue(int(balances[msg.sender]), msg.sender);\n\n    if (goalReached()) {\n      GoalMet(true);\n    }\n\n    queue.addToQueue(int(msg.value), msg.sender);\n\n    balance += msg.value;\n\n    return true;\n  }\n\n  function getFirstInLine()\n    constant\n    returns (address readerAddress)\n  {\n    return queue.getFirstInLine();\n  }\n\n  // Anyone can call this\n  // Idealy the author should as soon as the goal is met\n  function setFirstEligible()\n    goalMet\n    returns (bool success)\n  {\n    require(eligibleCount <= toBeShipped);\n    eligibleCount++;\n    address first = queue.getFirstInLine();\n    readers[first].status = ReaderStatus.Eligible;\n    queue.remove(first, int(balances[first]));\n    return true;\n  }\n\n  //((Author)) withdraws the capital they earned through coin sales\n  function withdrawCapital()\n    /*isAuthor()*/{\n    authorAddress.transfer(balance);\n  }\n\n  //Readers can claim hard copy after they become eligible\n  function requestDelivery (address readerAddress) returns (bool success) {\n    require(readers[readerAddress].status == ReaderStatus.Eligible);\n    readers[readerAddress].status = ReaderStatus.Requested;\n    BookRequested(msg.sender);\n    return true;\n  }\n\n  function markShipped (address reader) returns (bool success) {\n    require(readers[reader].status == ReaderStatus.Requested);\n    readers[reader].status = ReaderStatus.Shipped;\n    LogBookShipped(reader);\n    return true;\n  }\n\n  function confirmDelivery (address reader) returns (bool success) {\n    require(readers[reader].status == ReaderStatus.Shipped);\n    readers[reader].status = ReaderStatus.Confirmed;\n    LogBookConfirmed(reader);\n    return true;\n  }\n\n}\n",
  "sourcePath": "/Users/marius/wip/BookPub/contracts/Book.sol",
  "compiler": {
    "name": "solc",
    "version": "0.4.18+commit.9cf6e910.Emscripten.clang"
  },
  "schemaVersion": "1.0.1",
  "updatedAt": "2018-01-28T18:47:14.677Z"
}