{
  "contractName": "BookQueueLib",
  "abi": [
    {
      "constant": false,
      "inputs": [
        {
          "name": "readerAddress",
          "type": "address"
        }
      ],
      "name": "retrieve",
      "outputs": [],
      "payable": false,
      "stateMutability": "nonpayable",
      "type": "function"
    },
    {
      "constant": false,
      "inputs": [
        {
          "name": "queue",
          "type": "BookQueueLib.BookQueue storage"
        },
        {
          "name": "value",
          "type": "int256"
        },
        {
          "name": "readerAddress",
          "type": "address"
        }
      ],
      "name": "addToQueueFirst",
      "outputs": [],
      "payable": false,
      "stateMutability": "nonpayable",
      "type": "function"
    },
    {
      "constant": true,
      "inputs": [
        {
          "name": "queue",
          "type": "BookQueueLib.BookQueue storage"
        }
      ],
      "name": "getFirstInLine",
      "outputs": [
        {
          "name": "readerAddress",
          "type": "address"
        }
      ],
      "payable": false,
      "stateMutability": "view",
      "type": "function"
    },
    {
      "constant": true,
      "inputs": [
        {
          "name": "queue",
          "type": "BookQueueLib.BookQueue storage"
        },
        {
          "name": "index",
          "type": "uint256"
        }
      ],
      "name": "getLinePosition",
      "outputs": [
        {
          "name": "readerAddress",
          "type": "address"
        }
      ],
      "payable": false,
      "stateMutability": "view",
      "type": "function"
    },
    {
      "constant": false,
      "inputs": [
        {
          "name": "queue",
          "type": "BookQueueLib.BookQueue storage"
        },
        {
          "name": "reader",
          "type": "address"
        },
        {
          "name": "value",
          "type": "int256"
        }
      ],
      "name": "remove",
      "outputs": [
        {
          "name": "success",
          "type": "bool"
        }
      ],
      "payable": false,
      "stateMutability": "nonpayable",
      "type": "function"
    },
    {
      "constant": false,
      "inputs": [
        {
          "name": "queue",
          "type": "BookQueueLib.BookQueue storage"
        },
        {
          "name": "value",
          "type": "int256"
        },
        {
          "name": "readerAddress",
          "type": "address"
        }
      ],
      "name": "addToQueue",
      "outputs": [],
      "payable": false,
      "stateMutability": "nonpayable",
      "type": "function"
    }
  ],
  "bytecode": "0x6060604052341561000f57600080fd5b610c7c8061001e6000396000f300606060405260043610610078576000357c0100000000000000000000000000000000000000000000000000000000900463ffffffff1680630a79309b1461007d5780632931f0be146100ab578063358335c1146100eb5780633fe25a78146101435780636cc5b745146101a4578063c2b025a8146101fc575b600080fd5b6100a9600480803573ffffffffffffffffffffffffffffffffffffffff1690602001909190505061023c565b005b6100e9600480803590602001909190803590602001909190803573ffffffffffffffffffffffffffffffffffffffff1690602001909190505061023f565b005b610101600480803590602001909190505061029d565b604051808273ffffffffffffffffffffffffffffffffffffffff1673ffffffffffffffffffffffffffffffffffffffff16815260200191505060405180910390f35b61016260048080359060200190919080359060200190919050506103a1565b604051808273ffffffffffffffffffffffffffffffffffffffff1673ffffffffffffffffffffffffffffffffffffffff16815260200191505060405180910390f35b6101e2600480803590602001909190803573ffffffffffffffffffffffffffffffffffffffff169060200190919080359060200190919050506103a9565b604051808215151515815260200191505060405180910390f35b61023a600480803590602001909190803590602001909190803573ffffffffffffffffffffffffffffffffffffffff169060200190919050506107ab565b005b50565b600061024b8484610809565b905060006001028160001916141561028c5761026784846108d6565b90508360030154600019168160001916111561028b57808460030181600019169055505b5b610297848284610982565b50505050565b60008060008084600301549250846002016000846000191660001916815260200190815260200160002091508160000173__GroveLib______________________________63e6ce3a6a909184600401546000604051602001526040518363ffffffff167c010000000000000000000000000000000000000000000000000000000002815260040180838152602001807f3e3d0000000000000000000000000000000000000000000000000000000000008152506020018281526020019250505060206040518083038186803b151561037557600080fd5b6102c65a03f4151561038657600080fd5b50505060405180519050905080600190049350505050919050565b600092915050565b6000806000808660000173__GroveLib______________________________63e6ce3a6a9091876000604051602001526040518363ffffffff167c010000000000000000000000000000000000000000000000000000000002815260040180838152602001807f3d3d0000000000000000000000000000000000000000000000000000000000008152506020018281526020019250505060206040518083038186803b151561045757600080fd5b6102c65a03f4151561046857600080fd5b505050604051805190509250866002016000846000191660001916815260200190815260200160002091508160000173__GroveLib______________________________63ab7366f790918873ffffffffffffffffffffffffffffffffffffffff166001026040518363ffffffff167c01000000000000000000000000000000000000000000000000000000000281526004018083815260200182600019166000191681526020019250505060006040518083038186803b151561052b57600080fd5b6102c65a03f4151561053c57600080fd5b5050508160000173__GroveLib______________________________63e6ce3a6a909184600401546000604051602001526040518363ffffffff167c010000000000000000000000000000000000000000000000000000000002815260040180838152602001807f3e3d0000000000000000000000000000000000000000000000000000000000008152506020018281526020019250505060206040518083038186803b15156105eb57600080fd5b6102c65a03f415156105fc57600080fd5b5050506040518051905090506000600102600019168160001916141561079d578660000173__GroveLib______________________________63ab7366f79091856040518363ffffffff167c01000000000000000000000000000000000000000000000000000000000281526004018083815260200182600019166000191681526020019250505060006040518083038186803b151561069b57600080fd5b6102c65a03f415156106ac57600080fd5b5050508660030154600019168360001916141561079c578660000173__GroveLib______________________________63e6ce3a6a909160ff60019060020a02196000604051602001526040518363ffffffff167c010000000000000000000000000000000000000000000000000000000002815260040180838152602001807f3c3d0000000000000000000000000000000000000000000000000000000000008152506020018281526020019250505060206040518083038186803b151561077457600080fd5b6102c65a03f4151561078557600080fd5b505050604051805190508760030181600019169055505b5b600193505050509392505050565b60006107b78484610809565b90506000600102816000191614156107f8576107d384846108d6565b9050836003015460001916816000191611156107f757808460030181600019169055505b5b610803848284610ae9565b50505050565b60008260000173__GroveLib______________________________63e6ce3a6a9091846000604051602001526040518363ffffffff167c010000000000000000000000000000000000000000000000000000000002815260040180838152602001807f3d3d0000000000000000000000000000000000000000000000000000000000008152506020018281526020019250505060206040518083038186803b15156108b357600080fd5b6102c65a03f415156108c457600080fd5b50505060405180519050905092915050565b60008160010290508260000173__GroveLib______________________________63bacd6958909183856040518463ffffffff167c0100000000000000000000000000000000000000000000000000000000028152600401808481526020018360001916600019168152602001828152602001935050505060006040518083038186803b151561096557600080fd5b6102c65a03f4151561097657600080fd5b50505080905092915050565b600083600201600084600019166000191681526020019081526020016000209050600181600401600082825403925050819055508060000173__GroveLib______________________________63bacd695890918473ffffffffffffffffffffffffffffffffffffffff1660010284600401546040518463ffffffff167c0100000000000000000000000000000000000000000000000000000000028152600401808481526020018360001916600019168152602001828152602001935050505060006040518083038186803b1515610a5a57600080fd5b6102c65a03f41515610a6b57600080fd5b505050818160020160008473ffffffffffffffffffffffffffffffffffffffff166001026000191660001916815260200190815260200160002060006101000a81548173ffffffffffffffffffffffffffffffffffffffff021916908373ffffffffffffffffffffffffffffffffffffffff16021790555050505050565b600083600201600084600019166000191681526020019081526020016000209050600181600301600082825401925050819055508060000173__GroveLib______________________________63bacd695890918473ffffffffffffffffffffffffffffffffffffffff1660010284600301546040518463ffffffff167c0100000000000000000000000000000000000000000000000000000000028152600401808481526020018360001916600019168152602001828152602001935050505060006040518083038186803b1515610bc157600080fd5b6102c65a03f41515610bd257600080fd5b505050818160020160008473ffffffffffffffffffffffffffffffffffffffff166001026000191660001916815260200190815260200160002060006101000a81548173ffffffffffffffffffffffffffffffffffffffff021916908373ffffffffffffffffffffffffffffffffffffffff160217905550505050505600a165627a7a723058200d1c509e050862dc22af6d12eab768255633c5d59527fd883c2b05b9ddcc0e250029",
  "source": "pragma solidity ^0.4.15;\n\nimport \"./GroveLib.sol\";\nimport \"./BookPub.sol\";\n\nlibrary BookQueueLib {\n  using GroveLib for GroveLib.Index;\n\n  int256 constant INT256_MAX = int256(~((uint256(1) << 255)));\n\n  struct BucketQueue {\n    GroveLib.Index bucketIndex;\n    mapping (bytes32 => address) readerAddress;\n    int lastIndex;\n    int firstIndex;\n  }\n\n  struct BookQueue {\n    GroveLib.Index bucketIndex;\n    mapping(bytes32 => BucketQueue) buckets;\n    bytes32 highestBucketID;\n  }\n\n  function createQueue()\n    internal\n    returns (BookQueue)\n  {\n    return BookQueue({\n      bucketIndex: GroveLib.Index(sha3(this, block.number)),\n          highestBucketID: 0\n          });\n  }\n\n  function addToQueue(BookQueue storage queue, int value, address readerAddress) {\n    //Take readers address, store it in BookQueue placement selected by value\n    var bucketID = findBucket(queue, value);\n\n    if (bucketID == 0x0) {\n      bucketID = createBucket(queue, value);\n      if(bucketID > queue.highestBucketID) {\n        queue.highestBucketID = bucketID;\n      }\n    }\n    addToBucket(queue, bucketID, readerAddress);\n  }\n\n  // TODO: Don't duplicate\n  function addToQueueFirst(BookQueue storage queue, int value, address readerAddress) {\n    //Take readers address, store it in BookQueue placement selected by value\n    var bucketID = findBucket(queue, value);\n\n    if (bucketID == 0x0) {\n      bucketID = createBucket(queue, value);\n      if(bucketID > queue.highestBucketID) {\n        queue.highestBucketID = bucketID;\n      }\n    }\n    addToBucketFirst(queue, bucketID, readerAddress);\n  }\n\n  function retrieve(address readerAddress){\n  }\n\n  function findBucket(BookQueue storage queue, int value)\n    internal\n    returns (bytes32 bucketID)\n  {\n    bucketID = queue.bucketIndex.query(\"==\", value);\n  }\n\n  function remove(BookQueue storage queue, address reader, int value)\n    returns (bool success)\n  {\n    bytes32 bucketID = queue.bucketIndex.query('==', value);\n    BucketQueue bucket = queue.buckets[bucketID];\n    bucket.bucketIndex.remove(bytes32(reader));\n    bytes32 nextInLine = bucket.bucketIndex.query('>=', bucket.firstIndex);\n    if (nextInLine == bytes32(0)) {\n      queue.bucketIndex.remove(bucketID);\n      if (bucketID == queue.highestBucketID) {\n        queue.highestBucketID = queue.bucketIndex.query('<=', INT256_MAX);\n      }\n    }\n    return true;\n  }\n\n  function createBucket(BookQueue storage queue, int value)\n    internal\n    returns(bytes32 bucketID)\n  {\n    bucketID = bytes32(value);\n    queue.bucketIndex.insert(bucketID, value);\n    return bucketID;\n  }\n\n  function addToBucket(BookQueue storage queue, bytes32 bucketID, address readerAddress)\n    internal\n  {\n    BucketQueue bucket = queue.buckets[bucketID];\n    bucket.lastIndex += 1;\n    bucket.bucketIndex.insert(bytes32(readerAddress), bucket.lastIndex);\n    bucket.readerAddress[bytes32(readerAddress)] = readerAddress;\n  }\n\n  function addToBucketFirst(BookQueue storage queue, bytes32 bucketID, address readerAddress)\n    internal\n  {\n    var bucket = queue.buckets[bucketID];\n    bucket.firstIndex -= 1;\n    bucket.bucketIndex.insert(bytes32(readerAddress), bucket.firstIndex);\n    bucket.readerAddress[bytes32(readerAddress)] = readerAddress;\n  }\n\n  function getFirstInLine(BookQueue storage queue)\n    constant\n    returns(address readerAddress)\n  {\n    var bucketID = queue.highestBucketID;\n    var bucket = queue.buckets[bucketID];\n    var bucketQueueID = bucket.bucketIndex.query('>=', bucket.firstIndex);\n    return address(bucketQueueID);\n  }\n\n  function getLinePosition(BookQueue storage queue, uint index)\n    constant\n    returns(address readerAddress){\n    /*var bucketID = queue.highestBucketID;\n      var bucket = queue.buckets[bucketID];\n      return bucket[bucket.length - 1];*/\n  }\n\n}\n",
  "sourcePath": "/Users/marius/wip/BookPub/contracts/BookQueueLib.sol",
  "compiler": {
    "name": "solc",
    "version": "0.4.18+commit.9cf6e910.Emscripten.clang"
  },
  "schemaVersion": "1.0.1",
  "updatedAt": "2018-01-28T18:47:14.682Z"
}