{
  "contractName": "Book",
  "abi": [
    {
      "constant": true,
      "inputs": [],
      "name": "name",
      "outputs": [
        {
          "name": "",
          "type": "string"
        }
      ],
      "payable": false,
      "stateMutability": "view",
      "type": "function"
    },
    {
      "constant": false,
      "inputs": [
        {
          "name": "_spender",
          "type": "address"
        },
        {
          "name": "_value",
          "type": "uint256"
        }
      ],
      "name": "approve",
      "outputs": [
        {
          "name": "success",
          "type": "bool"
        }
      ],
      "payable": false,
      "stateMutability": "nonpayable",
      "type": "function"
    },
    {
      "constant": true,
      "inputs": [],
      "name": "totalSupply",
      "outputs": [
        {
          "name": "",
          "type": "uint256"
        }
      ],
      "payable": false,
      "stateMutability": "view",
      "type": "function"
    },
    {
      "constant": false,
      "inputs": [
        {
          "name": "_from",
          "type": "address"
        },
        {
          "name": "_to",
          "type": "address"
        },
        {
          "name": "_value",
          "type": "uint256"
        }
      ],
      "name": "transferFrom",
      "outputs": [
        {
          "name": "success",
          "type": "bool"
        }
      ],
      "payable": false,
      "stateMutability": "nonpayable",
      "type": "function"
    },
    {
      "constant": true,
      "inputs": [],
      "name": "decimals",
      "outputs": [
        {
          "name": "",
          "type": "uint8"
        }
      ],
      "payable": false,
      "stateMutability": "view",
      "type": "function"
    },
    {
      "constant": true,
      "inputs": [],
      "name": "version",
      "outputs": [
        {
          "name": "",
          "type": "string"
        }
      ],
      "payable": false,
      "stateMutability": "view",
      "type": "function"
    },
    {
      "constant": true,
      "inputs": [
        {
          "name": "_owner",
          "type": "address"
        }
      ],
      "name": "balanceOf",
      "outputs": [
        {
          "name": "balance",
          "type": "uint256"
        }
      ],
      "payable": false,
      "stateMutability": "view",
      "type": "function"
    },
    {
      "constant": true,
      "inputs": [],
      "name": "symbol",
      "outputs": [
        {
          "name": "",
          "type": "string"
        }
      ],
      "payable": false,
      "stateMutability": "view",
      "type": "function"
    },
    {
      "constant": false,
      "inputs": [
        {
          "name": "_to",
          "type": "address"
        },
        {
          "name": "_value",
          "type": "uint256"
        }
      ],
      "name": "transfer",
      "outputs": [
        {
          "name": "success",
          "type": "bool"
        }
      ],
      "payable": false,
      "stateMutability": "nonpayable",
      "type": "function"
    },
    {
      "constant": false,
      "inputs": [
        {
          "name": "_spender",
          "type": "address"
        },
        {
          "name": "_value",
          "type": "uint256"
        },
        {
          "name": "_extraData",
          "type": "bytes"
        }
      ],
      "name": "approveAndCall",
      "outputs": [
        {
          "name": "success",
          "type": "bool"
        }
      ],
      "payable": false,
      "stateMutability": "nonpayable",
      "type": "function"
    },
    {
      "constant": true,
      "inputs": [
        {
          "name": "_owner",
          "type": "address"
        },
        {
          "name": "_spender",
          "type": "address"
        }
      ],
      "name": "allowance",
      "outputs": [
        {
          "name": "remaining",
          "type": "uint256"
        }
      ],
      "payable": false,
      "stateMutability": "view",
      "type": "function"
    },
    {
      "inputs": [
        {
          "name": "_authorAddress",
          "type": "address"
        },
        {
          "name": "_readershipStake",
          "type": "uint256"
        },
        {
          "name": "_goal",
          "type": "uint256"
        },
        {
          "name": "_toBeShipped",
          "type": "uint256"
        },
        {
          "name": "_eligibleCount",
          "type": "uint256"
        },
        {
          "name": "_initialAmount",
          "type": "uint256"
        },
        {
          "name": "_tokenName",
          "type": "string"
        },
        {
          "name": "_decimalUnits",
          "type": "uint8"
        },
        {
          "name": "_startdate",
          "type": "uint256"
        },
        {
          "name": "_enddate",
          "type": "uint256"
        },
        {
          "name": "_tokenSymbol",
          "type": "string"
        }
      ],
      "payable": false,
      "stateMutability": "nonpayable",
      "type": "constructor"
    },
    {
      "anonymous": false,
      "inputs": [
        {
          "indexed": false,
          "name": "reader",
          "type": "address"
        },
        {
          "indexed": false,
          "name": "amountPaid",
          "type": "uint256"
        }
      ],
      "name": "BoughtCoin",
      "type": "event"
    },
    {
      "anonymous": false,
      "inputs": [
        {
          "indexed": false,
          "name": "success",
          "type": "bool"
        }
      ],
      "name": "GoalMet",
      "type": "event"
    },
    {
      "anonymous": false,
      "inputs": [],
      "name": "NewQualifyingReaders",
      "type": "event"
    },
    {
      "anonymous": false,
      "inputs": [
        {
          "indexed": false,
          "name": "reader",
          "type": "address"
        }
      ],
      "name": "BookRequested",
      "type": "event"
    },
    {
      "anonymous": false,
      "inputs": [
        {
          "indexed": false,
          "name": "reader",
          "type": "address"
        }
      ],
      "name": "LogBookShipped",
      "type": "event"
    },
    {
      "anonymous": false,
      "inputs": [
        {
          "indexed": false,
          "name": "reader",
          "type": "address"
        }
      ],
      "name": "LogBookConfirmed",
      "type": "event"
    },
    {
      "anonymous": false,
      "inputs": [
        {
          "indexed": true,
          "name": "_from",
          "type": "address"
        },
        {
          "indexed": true,
          "name": "_to",
          "type": "address"
        },
        {
          "indexed": false,
          "name": "_value",
          "type": "uint256"
        }
      ],
      "name": "Transfer",
      "type": "event"
    },
    {
      "anonymous": false,
      "inputs": [
        {
          "indexed": true,
          "name": "_owner",
          "type": "address"
        },
        {
          "indexed": true,
          "name": "_spender",
          "type": "address"
        },
        {
          "indexed": false,
          "name": "_value",
          "type": "uint256"
        }
      ],
      "name": "Approval",
      "type": "event"
    },
    {
      "constant": false,
      "inputs": [],
      "name": "goalReached",
      "outputs": [
        {
          "name": "goalMet",
          "type": "bool"
        }
      ],
      "payable": false,
      "stateMutability": "nonpayable",
      "type": "function"
    },
    {
      "constant": false,
      "inputs": [],
      "name": "buyCoin",
      "outputs": [
        {
          "name": "success",
          "type": "bool"
        }
      ],
      "payable": true,
      "stateMutability": "payable",
      "type": "function"
    },
    {
      "constant": true,
      "inputs": [],
      "name": "getFirstInLine",
      "outputs": [
        {
          "name": "readerAddress",
          "type": "address"
        }
      ],
      "payable": false,
      "stateMutability": "view",
      "type": "function"
    },
    {
      "constant": false,
      "inputs": [
        {
          "name": "value",
          "type": "uint256"
        }
      ],
      "name": "weekSaleSum",
      "outputs": [],
      "payable": false,
      "stateMutability": "nonpayable",
      "type": "function"
    },
    {
      "constant": false,
      "inputs": [
        {
          "name": "week",
          "type": "uint256"
        }
      ],
      "name": "ETA",
      "outputs": [
        {
          "name": "",
          "type": "uint256"
        }
      ],
      "payable": false,
      "stateMutability": "nonpayable",
      "type": "function"
    },
    {
      "constant": false,
      "inputs": [],
      "name": "setFirstEligible",
      "outputs": [
        {
          "name": "success",
          "type": "bool"
        }
      ],
      "payable": false,
      "stateMutability": "nonpayable",
      "type": "function"
    },
    {
      "constant": false,
      "inputs": [],
      "name": "withdrawCapital",
      "outputs": [],
      "payable": false,
      "stateMutability": "nonpayable",
      "type": "function"
    },
    {
      "constant": false,
      "inputs": [
        {
          "name": "readerAddress",
          "type": "address"
        }
      ],
      "name": "requestDelivery",
      "outputs": [
        {
          "name": "success",
          "type": "bool"
        }
      ],
      "payable": false,
      "stateMutability": "nonpayable",
      "type": "function"
    },
    {
      "constant": false,
      "inputs": [
        {
          "name": "reader",
          "type": "address"
        }
      ],
      "name": "markShipped",
      "outputs": [
        {
          "name": "success",
          "type": "bool"
        }
      ],
      "payable": false,
      "stateMutability": "nonpayable",
      "type": "function"
    },
    {
      "constant": false,
      "inputs": [
        {
          "name": "reader",
          "type": "address"
        }
      ],
      "name": "confirmDelivery",
      "outputs": [
        {
          "name": "success",
          "type": "bool"
        }
      ],
      "payable": false,
      "stateMutability": "nonpayable",
      "type": "function"
    }
  ],
  "bytecode": "0x60606040526040805190810160405280600481526020017f48302e31000000000000000000000000000000000000000000000000000000008152506006908051906020019062000051929190620001f2565b5034156200005e57600080fd5b604051620021f8380380620021f8833981016040528080519060200190919080519060200190919080519060200190919080519060200190919080519060200190919080519060200190919080518201919060200180519060200190919080519060200190919080519060200190919080518201919050508585858383600160003373ffffffffffffffffffffffffffffffffffffffff1673ffffffffffffffffffffffffffffffffffffffff168152602001908152602001600020819055508360008190555082600390805190602001906200013d929190620001f2565b5081600460006101000a81548160ff021916908360ff160217905550806005908051906020019062000171929190620001f2565b50505050508a600760006101000a81548173ffffffffffffffffffffffffffffffffffffffff021916908373ffffffffffffffffffffffffffffffffffffffff1602179055508960088190555088600a8190555086600d8190555087600b8190555082600e8190555081600f819055505050505050505050505050620002a1565b828054600181600116156101000203166002900490600052602060002090601f016020900481019282601f106200023557805160ff191683800117855562000266565b8280016001018555821562000266579182015b828111156200026557825182559160200191906001019062000248565b5b50905062000275919062000279565b5090565b6200029e91905b808211156200029a57600081600090555060010162000280565b5090565b90565b611f4780620002b16000396000f30060606040526004361061011d576000357c0100000000000000000000000000000000000000000000000000000000900463ffffffff16806306fdde0314610122578063091e9a60146101b0578063095ea7b3146101d257806317727a001461022c57806318160ddd1461024157806323b872dd1461026a578063313ce567146102e35780633696a817146103125780634791abe11461033557806354fd4d501461038657806365ab841d1461041457806370a08231146104415780637d3d65221461048e57806395d89b41146104bb5780639f7aee8214610549578063a9059cbb1461059a578063cae9ca51146105f4578063d35e27d614610691578063dd62ed3e146106e6578063ebfdd32d14610752578063fc6dc17d14610789575b600080fd5b341561012d57600080fd5b6101356107da565b6040518080602001828103825283818151815260200191508051906020019080838360005b8381101561017557808201518184015260208101905061015a565b50505050905090810190601f1680156101a25780820380516001836020036101000a031916815260200191505b509250505060405180910390f35b6101b8610878565b604051808215151515815260200191505060405180910390f35b34156101dd57600080fd5b610212600480803573ffffffffffffffffffffffffffffffffffffffff16906020019091908035906020019091905050610d47565b604051808215151515815260200191505060405180910390f35b341561023757600080fd5b61023f610e39565b005b341561024c57600080fd5b610254610e9f565b6040518082815260200191505060405180910390f35b341561027557600080fd5b6102c9600480803573ffffffffffffffffffffffffffffffffffffffff1690602001909190803573ffffffffffffffffffffffffffffffffffffffff16906020019091908035906020019091905050610ea5565b604051808215151515815260200191505060405180910390f35b34156102ee57600080fd5b6102f6611111565b604051808260ff1660ff16815260200191505060405180910390f35b341561031d57600080fd5b6103336004808035906020019091905050611124565b005b341561034057600080fd5b61036c600480803573ffffffffffffffffffffffffffffffffffffffff1690602001909190505061116c565b604051808215151515815260200191505060405180910390f35b341561039157600080fd5b6103996112b2565b6040518080602001828103825283818151815260200191508051906020019080838360005b838110156103d95780820151818401526020810190506103be565b50505050905090810190601f1680156104065780820380516001836020036101000a031916815260200191505b509250505060405180910390f35b341561041f57600080fd5b610427611350565b604051808215151515815260200191505060405180910390f35b341561044c57600080fd5b610478600480803573ffffffffffffffffffffffffffffffffffffffff16906020019091905050611597565b6040518082815260200191505060405180910390f35b341561049957600080fd5b6104a16115e0565b604051808215151515815260200191505060405180910390f35b34156104c657600080fd5b6104ce6115ef565b6040518080602001828103825283818151815260200191508051906020019080838360005b8381101561050e5780820151818401526020810190506104f3565b50505050905090810190601f16801561053b5780820380516001836020036101000a031916815260200191505b509250505060405180910390f35b341561055457600080fd5b610580600480803573ffffffffffffffffffffffffffffffffffffffff1690602001909190505061168d565b604051808215151515815260200191505060405180910390f35b34156105a557600080fd5b6105da600480803573ffffffffffffffffffffffffffffffffffffffff169060200190919080359060200190919050506117d3565b604051808215151515815260200191505060405180910390f35b34156105ff57600080fd5b610677600480803573ffffffffffffffffffffffffffffffffffffffff1690602001909190803590602001909190803590602001908201803590602001908080601f0160208091040260200160405190810160405280939291908181526020018383808284378201915050505050509190505061192c565b604051808215151515815260200191505060405180910390f35b341561069c57600080fd5b6106a4611bcd565b604051808273ffffffffffffffffffffffffffffffffffffffff1673ffffffffffffffffffffffffffffffffffffffff16815260200191505060405180910390f35b34156106f157600080fd5b61073c600480803573ffffffffffffffffffffffffffffffffffffffff1690602001909190803573ffffffffffffffffffffffffffffffffffffffff16906020019091905050611c65565b6040518082815260200191505060405180910390f35b341561075d57600080fd5b6107736004808035906020019091905050611cec565b6040518082815260200191505060405180910390f35b341561079457600080fd5b6107c0600480803573ffffffffffffffffffffffffffffffffffffffff16906020019091905050611d30565b604051808215151515815260200191505060405180910390f35b60038054600181600116156101000203166002900480601f0160208091040260200160405190810160405280929190818152602001828054600181600116156101000203166002900480156108705780601f1061084557610100808354040283529160200191610870565b820191906000526020600020905b81548152906001019060200180831161085357829003601f168201915b505050505081565b600080600160003373ffffffffffffffffffffffffffffffffffffffff1673ffffffffffffffffffffffffffffffffffffffff1681526020019081526020016000205414156109c957606060405190810160405280600c5481526020016040805190810160405280600981526020017f416e6f6e796d6f7573000000000000000000000000000000000000000000000081525081526020016000600481111561091d57fe5b815250601660003373ffffffffffffffffffffffffffffffffffffffff1673ffffffffffffffffffffffffffffffffffffffff168152602001908152602001600020600082015181600001556020820151816001019080519060200190610985929190611e76565b5060408201518160020160006101000a81548160ff021916908360048111156109aa57fe5b0217905550905050600c60008154809291906001019190505550610ad7565b601073__BookQueueLib__________________________636cc5b745909133600160003373ffffffffffffffffffffffffffffffffffffffff1673ffffffffffffffffffffffffffffffffffffffff168152602001908152602001600020546000604051602001526040518463ffffffff167c0100000000000000000000000000000000000000000000000000000000028152600401808481526020018373ffffffffffffffffffffffffffffffffffffffff1673ffffffffffffffffffffffffffffffffffffffff168152602001828152602001935050505060206040518083038186803b1515610aba57600080fd5b6102c65a03f41515610acb57600080fd5b50505060405180519050505b34600160003373ffffffffffffffffffffffffffffffffffffffff1673ffffffffffffffffffffffffffffffffffffffff16815260200190815260200160002060008282540192505081905550601073__BookQueueLib__________________________63c2b025a89091600160003373ffffffffffffffffffffffffffffffffffffffff1673ffffffffffffffffffffffffffffffffffffffff16815260200190815260200160002054336040518463ffffffff167c0100000000000000000000000000000000000000000000000000000000028152600401808481526020018381526020018273ffffffffffffffffffffffffffffffffffffffff1673ffffffffffffffffffffffffffffffffffffffff168152602001935050505060006040518083038186803b1515610c0c57600080fd5b6102c65a03f41515610c1d57600080fd5b505050610c286115e0565b15610c6a577f1e61fe9a90d23ee89cf23cb1f66c1188b68372e59b6ad3470f3b26b564e966776001604051808215151515815260200191505060405180910390a15b601073__BookQueueLib__________________________63c2b025a8909134336040518463ffffffff167c0100000000000000000000000000000000000000000000000000000000028152600401808481526020018381526020018273ffffffffffffffffffffffffffffffffffffffff1673ffffffffffffffffffffffffffffffffffffffff168152602001935050505060006040518083038186803b1515610d1357600080fd5b6102c65a03f41515610d2457600080fd5b50505034600960008282540192505081905550610d4034611124565b6001905090565b600081600260003373ffffffffffffffffffffffffffffffffffffffff1673ffffffffffffffffffffffffffffffffffffffff16815260200190815260200160002060008573ffffffffffffffffffffffffffffffffffffffff1673ffffffffffffffffffffffffffffffffffffffff168152602001908152602001600020819055508273ffffffffffffffffffffffffffffffffffffffff163373ffffffffffffffffffffffffffffffffffffffff167f8c5be1e5ebec7d5bd14f71427d1e84f3dd0314c0f7b2291e5b200ac8c7c3b925846040518082815260200191505060405180910390a36001905092915050565b600760009054906101000a900473ffffffffffffffffffffffffffffffffffffffff1673ffffffffffffffffffffffffffffffffffffffff166108fc6009549081150290604051600060405180830381858888f193505050501515610e9d57600080fd5b565b60005481565b600081600160008673ffffffffffffffffffffffffffffffffffffffff1673ffffffffffffffffffffffffffffffffffffffff1681526020019081526020016000205410158015610f72575081600260008673ffffffffffffffffffffffffffffffffffffffff1673ffffffffffffffffffffffffffffffffffffffff16815260200190815260200160002060003373ffffffffffffffffffffffffffffffffffffffff1673ffffffffffffffffffffffffffffffffffffffff1681526020019081526020016000205410155b1515610f7d57600080fd5b81600160008573ffffffffffffffffffffffffffffffffffffffff1673ffffffffffffffffffffffffffffffffffffffff1681526020019081526020016000206000828254019250508190555081600160008673ffffffffffffffffffffffffffffffffffffffff1673ffffffffffffffffffffffffffffffffffffffff1681526020019081526020016000206000828254039250508190555081600260008673ffffffffffffffffffffffffffffffffffffffff1673ffffffffffffffffffffffffffffffffffffffff16815260200190815260200160002060003373ffffffffffffffffffffffffffffffffffffffff1673ffffffffffffffffffffffffffffffffffffffff168152602001908152602001600020600082825403925050819055508273ffffffffffffffffffffffffffffffffffffffff168473ffffffffffffffffffffffffffffffffffffffff167fddf252ad1be2c89b69c2b068fc378daa952ba7f163c4a11628f55a4df523b3ef846040518082815260200191505060405180910390a3600190509392505050565b600460009054906101000a900460ff1681565b6000600762015180600e54420381151561113a57fe5b0481151561114457fe5b0490508160176000838152602001908152602001600020600082825401925050819055505050565b60006001600481111561117b57fe5b601660008473ffffffffffffffffffffffffffffffffffffffff1673ffffffffffffffffffffffffffffffffffffffff16815260200190815260200160002060020160009054906101000a900460ff1660048111156111d657fe5b1415156111e257600080fd5b6002601660008473ffffffffffffffffffffffffffffffffffffffff1673ffffffffffffffffffffffffffffffffffffffff16815260200190815260200160002060020160006101000a81548160ff0219169083600481111561124157fe5b02179055507f2230584ab8fade77c64e5c255605d55e33bda0fd1da9b3b6b76e9554d36fc35133604051808273ffffffffffffffffffffffffffffffffffffffff1673ffffffffffffffffffffffffffffffffffffffff16815260200191505060405180910390a160019050919050565b60068054600181600116156101000203166002900480601f0160208091040260200160405190810160405280929190818152602001828054600181600116156101000203166002900480156113485780601f1061131d57610100808354040283529160200191611348565b820191906000526020600020905b81548152906001019060200180831161132b57829003601f168201915b505050505081565b60008061135b6115e0565b151561136657600080fd5b600b54600d541115151561137957600080fd5b600d60008154809291906001019190505550601073__BookQueueLib__________________________63358335c190916000604051602001526040518263ffffffff167c01000000000000000000000000000000000000000000000000000000000281526004018082815260200191505060206040518083038186803b151561140157600080fd5b6102c65a03f4151561141257600080fd5b5050506040518051905090506001601660008373ffffffffffffffffffffffffffffffffffffffff1673ffffffffffffffffffffffffffffffffffffffff16815260200190815260200160002060020160006101000a81548160ff0219169083600481111561147d57fe5b0217905550601073__BookQueueLib__________________________636cc5b745909183600160008673ffffffffffffffffffffffffffffffffffffffff1673ffffffffffffffffffffffffffffffffffffffff168152602001908152602001600020546000604051602001526040518463ffffffff167c0100000000000000000000000000000000000000000000000000000000028152600401808481526020018373ffffffffffffffffffffffffffffffffffffffff1673ffffffffffffffffffffffffffffffffffffffff168152602001828152602001935050505060206040518083038186803b151561157357600080fd5b6102c65a03f4151561158457600080fd5b5050506040518051905050600191505090565b6000600160008373ffffffffffffffffffffffffffffffffffffffff1673ffffffffffffffffffffffffffffffffffffffff168152602001908152602001600020549050919050565b6000600a546009541015905090565b60058054600181600116156101000203166002900480601f0160208091040260200160405190810160405280929190818152602001828054600181600116156101000203166002900480156116855780601f1061165a57610100808354040283529160200191611685565b820191906000526020600020905b81548152906001019060200180831161166857829003601f168201915b505050505081565b60006003600481111561169c57fe5b601660008473ffffffffffffffffffffffffffffffffffffffff1673ffffffffffffffffffffffffffffffffffffffff16815260200190815260200160002060020160009054906101000a900460ff1660048111156116f757fe5b14151561170357600080fd5b6004601660008473ffffffffffffffffffffffffffffffffffffffff1673ffffffffffffffffffffffffffffffffffffffff16815260200190815260200160002060020160006101000a81548160ff0219169083600481111561176257fe5b02179055507f2fdd254ca56018a3eb3ea6a2f2dfb7a10081074b5b2e020f868b4c61565353c082604051808273ffffffffffffffffffffffffffffffffffffffff1673ffffffffffffffffffffffffffffffffffffffff16815260200191505060405180910390a160019050919050565b600081600160003373ffffffffffffffffffffffffffffffffffffffff1673ffffffffffffffffffffffffffffffffffffffff168152602001908152602001600020541015151561182357600080fd5b81600160003373ffffffffffffffffffffffffffffffffffffffff1673ffffffffffffffffffffffffffffffffffffffff1681526020019081526020016000206000828254039250508190555081600160008573ffffffffffffffffffffffffffffffffffffffff1673ffffffffffffffffffffffffffffffffffffffff168152602001908152602001600020600082825401925050819055508273ffffffffffffffffffffffffffffffffffffffff163373ffffffffffffffffffffffffffffffffffffffff167fddf252ad1be2c89b69c2b068fc378daa952ba7f163c4a11628f55a4df523b3ef846040518082815260200191505060405180910390a36001905092915050565b600082600260003373ffffffffffffffffffffffffffffffffffffffff1673ffffffffffffffffffffffffffffffffffffffff16815260200190815260200160002060008673ffffffffffffffffffffffffffffffffffffffff1673ffffffffffffffffffffffffffffffffffffffff168152602001908152602001600020819055508373ffffffffffffffffffffffffffffffffffffffff163373ffffffffffffffffffffffffffffffffffffffff167f8c5be1e5ebec7d5bd14f71427d1e84f3dd0314c0f7b2291e5b200ac8c7c3b925856040518082815260200191505060405180910390a38373ffffffffffffffffffffffffffffffffffffffff1660405180807f72656365697665417070726f76616c28616464726573732c75696e743235362c81526020017f616464726573732c627974657329000000000000000000000000000000000000815250602e01905060405180910390207c01000000000000000000000000000000000000000000000000000000009004338530866040518563ffffffff167c0100000000000000000000000000000000000000000000000000000000028152600401808573ffffffffffffffffffffffffffffffffffffffff1673ffffffffffffffffffffffffffffffffffffffff1681526020018481526020018373ffffffffffffffffffffffffffffffffffffffff1673ffffffffffffffffffffffffffffffffffffffff168152602001828051906020019080838360005b83811015611b6d578082015181840152602081019050611b52565b50505050905090810190601f168015611b9a5780820380516001836020036101000a031916815260200191505b5094505050505060006040518083038160008761646e5a03f1925050501515611bc257600080fd5b600190509392505050565b6000601073__BookQueueLib__________________________63358335c190916000604051602001526040518263ffffffff167c01000000000000000000000000000000000000000000000000000000000281526004018082815260200191505060206040518083038186803b1515611c4557600080fd5b6102c65a03f41515611c5657600080fd5b50505060405180519050905090565b6000600260008473ffffffffffffffffffffffffffffffffffffffff1673ffffffffffffffffffffffffffffffffffffffff16815260200190815260200160002060008373ffffffffffffffffffffffffffffffffffffffff1673ffffffffffffffffffffffffffffffffffffffff16815260200190815260200160002054905092915050565b600080600060176000858152602001908152602001600020549150600782811515611d1357fe5b04915081600a54811515611d2357fe5b0490508092505050919050565b600060026004811115611d3f57fe5b601660008473ffffffffffffffffffffffffffffffffffffffff1673ffffffffffffffffffffffffffffffffffffffff16815260200190815260200160002060020160009054906101000a900460ff166004811115611d9a57fe5b141515611da657600080fd5b6003601660008473ffffffffffffffffffffffffffffffffffffffff1673ffffffffffffffffffffffffffffffffffffffff16815260200190815260200160002060020160006101000a81548160ff02191690836004811115611e0557fe5b02179055507f23ebbcb002c7eea3cd701655c9274556b48dfd35cdce070c2fbc9101b5f7159082604051808273ffffffffffffffffffffffffffffffffffffffff1673ffffffffffffffffffffffffffffffffffffffff16815260200191505060405180910390a160019050919050565b828054600181600116156101000203166002900490600052602060002090601f016020900481019282601f10611eb757805160ff1916838001178555611ee5565b82800160010185558215611ee5579182015b82811115611ee4578251825591602001919060010190611ec9565b5b509050611ef29190611ef6565b5090565b611f1891905b80821115611f14576000816000905550600101611efc565b5090565b905600a165627a7a72305820ab4a8d4d8f7e071820112d1e37253a539b5f9661b736829b3b8cf0a89b9c38cd0029",
  "source": "pragma solidity ^0.4.15;\n\nimport \"./BookQueueLib.sol\";\nimport \"./BookDistLib.sol\";\nimport \"tokens/HumanStandardToken.sol\";\n\ncontract Book is HumanStandardToken {\n  using BookQueueLib for BookQueueLib.BookQueue;\n  address authorAddress;\n  uint readershipStake;\n  uint balance;\n  uint goal;\n  uint toBeShipped;\n  uint userCount;\n  uint eligibleCount;\n  uint startdate;\n  uint enddate;\n\n  BookQueueLib.BookQueue queue;\n\n  function Book\n    (\n     address _authorAddress,\n     //bytes metadata,\n     uint _readershipStake,\n     uint _goal,\n     uint _toBeShipped,\n     //uint _userCount,\n     uint _eligibleCount,\n     uint _initialAmount,\n     string _tokenName,\n     uint8 _decimalUnits,\n     uint _startdate,\n     uint _enddate,\n     string _tokenSymbol)\n    HumanStandardToken(_initialAmount, _tokenName, _decimalUnits, _tokenSymbol){\n    authorAddress = _authorAddress;\n    readershipStake = _readershipStake;\n    goal = _goal;\n  //  userCount = _userCount;\n    eligibleCount = _eligibleCount;\n    toBeShipped = _toBeShipped;\n    startdate=_startdate;\n    enddate=_enddate;\n  }\n\n  enum ReaderStatus { Waiting, Eligible, Requested, Shipped, Confirmed }\n\n  struct Reader {\n    uint id;\n    bytes readerUsername;      //Reader's username\n    ReaderStatus status;\n  }\n\n  event BoughtCoin(address reader, uint amountPaid);\n  event GoalMet(bool success);\n  event NewQualifyingReaders ();          //Some readers become eligible after goal is met\n  event BookRequested(address reader);    //Reader claims book\n  event LogBookShipped(address reader);   //Author sends shipping confirmation\n  event LogBookConfirmed(address reader);   //Author sends shipping confirmation\n\n  mapping (address => Reader) readers;\n  mapping(uint=>uint) weeklysales;\n  modifier goalMet {\n    require (goalReached());\n    _;\n  }\n  modifier TimeValid {\n    require ((startdate>now)&&(enddate<now));\n    _;\n  }\n\n  function goalReached()\n    returns (bool goalMet)\n  {\n    return balance >= goal;\n  }\n\n  function buyCoin()\n    public\n    payable\n    returns(bool success){\n\n    // Reader buys coins the first time\n    if (balances[msg.sender] == 0) {\n      // Add reader\n      readers[msg.sender] = Reader({ id: userCount, readerUsername: 'Anonymous', status: ReaderStatus.Waiting });\n      userCount++;\n\n      // Add the reader to the queue in the last position\n    } else { //Reader buys more coins later on\n      // Remove the reader to the queue he is a part of and move him to his new queue\n      queue.remove(msg.sender, int(balances[msg.sender]));\n    }\n\n    balances[msg.sender] += msg.value;\n    queue.addToQueue(int(balances[msg.sender]), msg.sender);\n\n    if (goalReached()) {\n      GoalMet(true);\n    }\n\n    queue.addToQueue(int(msg.value), msg.sender);\n\n    balance += msg.value;\n    weekSaleSum( msg.value);\n    return true;\n  }\n\n  function getFirstInLine()\n    constant\n    returns (address readerAddress)\n  {\n    return queue.getFirstInLine();\n  }\n  function weekSaleSum(uint value){\n  //  uint currentday=((now-start)/86400)%7;\n    uint currentweek=((now-startdate)/86400)/7;\n    weeklysales[currentweek]+=value;\n  }\n  function ETA(uint week)returns (uint){\n    uint temp= weeklysales[week];\n    temp=temp/7;\n    uint ETA=goal/temp;\n    return(ETA);\n  }\n  // Anyone can call this\n  // Idealy the author should as soon as the goal is met\n  function setFirstEligible()\n    goalMet\n    returns (bool success)\n  {\n    require(eligibleCount <= toBeShipped);\n    eligibleCount++;\n    address first = queue.getFirstInLine();\n    readers[first].status = ReaderStatus.Eligible;\n    queue.remove(first, int(balances[first]));\n    return true;\n  }\n\n  //((Author)) withdraws the capital they earned through coin sales\n  function withdrawCapital()\n    /*isAuthor()*/{\n    authorAddress.transfer(balance);\n  }\n\n  //Readers can claim hard copy after they become eligible\n  function requestDelivery (address readerAddress) returns (bool success) {\n    require(readers[readerAddress].status == ReaderStatus.Eligible);\n    readers[readerAddress].status = ReaderStatus.Requested;\n    BookRequested(msg.sender);\n    return true;\n  }\n\n  function markShipped (address reader) returns (bool success) {\n    require(readers[reader].status == ReaderStatus.Requested);\n    readers[reader].status = ReaderStatus.Shipped;\n    LogBookShipped(reader);\n    return true;\n  }\n\n  function confirmDelivery (address reader) returns (bool success) {\n    require(readers[reader].status == ReaderStatus.Shipped);\n    readers[reader].status = ReaderStatus.Confirmed;\n    LogBookConfirmed(reader);\n    return true;\n  }\n\n}\n",
  "sourcePath": "/home/jjj/BookPub/BookPub/contracts/Book.sol",
  "compiler": {
    "name": "solc",
    "version": "0.4.19+commit.c4cbbb05.Emscripten.clang"
  },
  "schemaVersion": "1.0.1",
  "updatedAt": "2018-02-10T19:09:42.486Z"
}