{
  "contractName": "BookPub",
  "abi": [
    {
      "constant": false,
      "inputs": [
        {
          "name": "onOff",
          "type": "bool"
        }
      ],
      "name": "runSwitch",
      "outputs": [
        {
          "name": "success",
          "type": "bool"
        }
      ],
      "payable": false,
      "stateMutability": "nonpayable",
      "type": "function"
    },
    {
      "constant": true,
      "inputs": [],
      "name": "owner",
      "outputs": [
        {
          "name": "",
          "type": "address"
        }
      ],
      "payable": false,
      "stateMutability": "view",
      "type": "function"
    },
    {
      "constant": false,
      "inputs": [
        {
          "name": "newOwner",
          "type": "address"
        }
      ],
      "name": "changeOwner",
      "outputs": [
        {
          "name": "success",
          "type": "bool"
        }
      ],
      "payable": false,
      "stateMutability": "nonpayable",
      "type": "function"
    },
    {
      "constant": true,
      "inputs": [],
      "name": "running",
      "outputs": [
        {
          "name": "",
          "type": "bool"
        }
      ],
      "payable": false,
      "stateMutability": "view",
      "type": "function"
    },
    {
      "inputs": [],
      "payable": false,
      "stateMutability": "nonpayable",
      "type": "constructor"
    },
    {
      "anonymous": false,
      "inputs": [
        {
          "indexed": false,
          "name": "switchSetting",
          "type": "bool"
        }
      ],
      "name": "LogRunSwitch",
      "type": "event"
    },
    {
      "anonymous": false,
      "inputs": [
        {
          "indexed": false,
          "name": "_owner",
          "type": "address"
        },
        {
          "indexed": false,
          "name": "newOwner",
          "type": "address"
        }
      ],
      "name": "LogNewOwner",
      "type": "event"
    },
    {
      "constant": false,
      "inputs": [
        {
          "name": "_bookID",
          "type": "uint256"
        },
        {
          "name": "_share",
          "type": "uint256"
        }
      ],
      "name": "addPartner",
      "outputs": [],
      "payable": false,
      "stateMutability": "nonpayable",
      "type": "function"
    },
    {
      "constant": false,
      "inputs": [
        {
          "name": "_readerUsername",
          "type": "bytes"
        }
      ],
      "name": "becomeReader",
      "outputs": [],
      "payable": false,
      "stateMutability": "nonpayable",
      "type": "function"
    },
    {
      "constant": false,
      "inputs": [
        {
          "name": "_authorName",
          "type": "bytes"
        }
      ],
      "name": "becomeAuthor",
      "outputs": [],
      "payable": false,
      "stateMutability": "nonpayable",
      "type": "function"
    },
    {
      "constant": false,
      "inputs": [
        {
          "name": "_readershipStake",
          "type": "uint256"
        },
        {
          "name": "_tokenName",
          "type": "string"
        },
        {
          "name": "_tokenSymbol",
          "type": "string"
        },
        {
          "name": "_governanceModel",
          "type": "string"
        }
      ],
      "name": "createBookStruct",
      "outputs": [],
      "payable": false,
      "stateMutability": "nonpayable",
      "type": "function"
    },
    {
      "constant": false,
      "inputs": [
        {
          "name": "_bookID",
          "type": "uint256"
        },
        {
          "name": "_goal",
          "type": "uint256"
        },
        {
          "name": "_startdate",
          "type": "uint256"
        },
        {
          "name": "_enddate",
          "type": "uint256"
        },
        {
          "name": "_eligibleCount",
          "type": "uint256"
        }
      ],
      "name": "modifyBookStruct",
      "outputs": [],
      "payable": false,
      "stateMutability": "nonpayable",
      "type": "function"
    },
    {
      "constant": false,
      "inputs": [
        {
          "name": "id",
          "type": "uint256"
        },
        {
          "name": "_decimalUnits",
          "type": "uint8"
        },
        {
          "name": "_initialAmount",
          "type": "uint256"
        },
        {
          "name": "_toBeShipped",
          "type": "uint256"
        }
      ],
      "name": "publishBook",
      "outputs": [],
      "payable": false,
      "stateMutability": "nonpayable",
      "type": "function"
    },
    {
      "constant": false,
      "inputs": [
        {
          "name": "n",
          "type": "uint256"
        }
      ],
      "name": "structRet",
      "outputs": [
        {
          "name": "",
          "type": "uint256"
        }
      ],
      "payable": false,
      "stateMutability": "nonpayable",
      "type": "function"
    },
    {
      "constant": false,
      "inputs": [
        {
          "name": "n",
          "type": "uint256"
        }
      ],
      "name": "nameret",
      "outputs": [
        {
          "name": "",
          "type": "string"
        }
      ],
      "payable": false,
      "stateMutability": "nonpayable",
      "type": "function"
    },
    {
      "constant": false,
      "inputs": [
        {
          "name": "n",
          "type": "uint256"
        }
      ],
      "name": "symbolret",
      "outputs": [
        {
          "name": "",
          "type": "string"
        }
      ],
      "payable": false,
      "stateMutability": "nonpayable",
      "type": "function"
    },
    {
      "constant": false,
      "inputs": [
        {
          "name": "n",
          "type": "uint256"
        }
      ],
      "name": "getBookStruct",
      "outputs": [
        {
          "components": [
            {
              "name": "bookID",
              "type": "uint256"
            },
            {
              "name": "authorAddress",
              "type": "address"
            },
            {
              "name": "readershipStake",
              "type": "uint256"
            },
            {
              "name": "numPartners",
              "type": "uint256"
            },
            {
              "name": "goal",
              "type": "uint256"
            },
            {
              "name": "eligibleCount",
              "type": "uint256"
            },
            {
              "name": "startdate",
              "type": "uint256"
            },
            {
              "name": "enddate",
              "type": "uint256"
            },
            {
              "name": "tokenName",
              "type": "string"
            },
            {
              "name": "tokenSymbol",
              "type": "string"
            },
            {
              "name": "governanceModel",
              "type": "string"
            }
          ],
          "name": "",
          "type": "tuple"
        }
      ],
      "payable": false,
      "stateMutability": "nonpayable",
      "type": "function"
    },
    {
      "constant": false,
      "inputs": [
        {
          "name": "n",
          "type": "uint256"
        }
      ],
      "name": "getOtherparams",
      "outputs": [
        {
          "name": "",
          "type": "uint256"
        },
        {
          "name": "",
          "type": "uint256"
        },
        {
          "name": "",
          "type": "uint256"
        },
        {
          "name": "",
          "type": "uint256"
        }
      ],
      "payable": false,
      "stateMutability": "nonpayable",
      "type": "function"
    },
    {
      "constant": false,
      "inputs": [
        {
          "name": "n",
          "type": "uint256"
        },
        {
          "name": "m",
          "type": "uint256"
        }
      ],
      "name": "getPartnerShare",
      "outputs": [
        {
          "name": "",
          "type": "uint256"
        }
      ],
      "payable": false,
      "stateMutability": "nonpayable",
      "type": "function"
    },
    {
      "constant": false,
      "inputs": [
        {
          "name": "n",
          "type": "uint256"
        }
      ],
      "name": "returnallShares",
      "outputs": [
        {
          "name": "",
          "type": "uint256[]"
        }
      ],
      "payable": false,
      "stateMutability": "nonpayable",
      "type": "function"
    }
  ],
  "bytecode": "0x6060604052341561000f57600080fd5b336000806101000a81548173ffffffffffffffffffffffffffffffffffffffff021916908373ffffffffffffffffffffffffffffffffffffffff1602179055506001600060146101000a81548160ff0219169083151502179055506000600181905550614751806100816000396000f30060606040526004361062000103576000357c0100000000000000000000000000000000000000000000000000000000900463ffffffff1680631b50e1e3146200010857806320b4562014620001525780632dd9705814620001f45780633c3ee35514620002345780633e473dd314620002d65780635aaab49914620003105780638424632f14620003545780638da5cb5b146200038e578063907f597d14620003e65780639967edb81462000429578063a6f9dae114620004a6578063b5bb4ec414620004fa578063b9f68d9d1462000529578063d0187c291462000589578063d85bd5261462000678578063e2579f9a14620006a8578063e63ab2771462000708575b600080fd5b34156200011457600080fd5b62000150600480803590602001909190803590602001909190803590602001909190803590602001909190803590602001909190505062000757565b005b34156200015e57600080fd5b620001766004808035906020019091905050620007ab565b6040518080602001828103825283818151815260200191508051906020019080838360005b83811015620001b85780820151818401526020810190506200019b565b50505050905090810190601f168015620001e65780820380516001836020036101000a031916815260200191505b509250505060405180910390f35b34156200020057600080fd5b6200021a6004808035151590602001909190505062000a7d565b604051808215151515815260200191505060405180910390f35b34156200024057600080fd5b62000258600480803590602001909190505062000b39565b6040518080602001828103825283818151815260200191508051906020019080838360005b838110156200029a5780820151818401526020810190506200027d565b50505050905090810190601f168015620002c85780820380516001836020036101000a031916815260200191505b509250505060405180910390f35b3415620002e257600080fd5b620002fa600480803590602001909190505062000e0b565b6040518082815260200191505060405180910390f35b34156200031c57600080fd5b62000352600480803590602001909190803560ff16906020019091908035906020019091908035906020019091905050620010d4565b005b34156200036057600080fd5b62000378600480803590602001909190505062001536565b6040518082815260200191505060405180910390f35b34156200039a57600080fd5b620003a4620017f5565b604051808273ffffffffffffffffffffffffffffffffffffffff1673ffffffffffffffffffffffffffffffffffffffff16815260200191505060405180910390f35b3415620003f257600080fd5b6200041360048080359060200190919080359060200190919050506200181a565b6040518082815260200191505060405180910390f35b34156200043557600080fd5b6200044d600480803590602001909190505062001849565b6040518080602001828103825283818151815260200191508051906020019060200280838360005b838110156200049257808201518184015260208101905062000475565b505050509050019250505060405180910390f35b3415620004b257600080fd5b620004e0600480803573ffffffffffffffffffffffffffffffffffffffff1690602001909190505062001b95565b604051808215151515815260200191505060405180910390f35b34156200050657600080fd5b62000527600480803590602001909190803590602001909190505062001d19565b005b34156200053557600080fd5b62000587600480803590602001908201803590602001908080601f0160208091040260200160405190810160405280939291908181526020018383808284378201915050505050509190505062001d82565b005b34156200059557600080fd5b62000676600480803590602001909190803590602001908201803590602001908080601f0160208091040260200160405190810160405280939291908181526020018383808284378201915050505050509190803590602001908201803590602001908080601f0160208091040260200160405190810160405280939291908181526020018383808284378201915050505050509190803590602001908201803590602001908080601f0160208091040260200160405190810160405280939291908181526020018383808284378201915050505050509190505062001e06565b005b34156200068457600080fd5b6200068e62001f8e565b604051808215151515815260200191505060405180910390f35b3415620006b457600080fd5b62000706600480803590602001908201803590602001908080601f0160208091040260200160405190810160405280939291908181526020018383808284378201915050505050509190505062001fa1565b005b34156200071457600080fd5b6200072c60048080359060200190919050506200203d565b6040518085815260200184815260200183815260200182815260200194505050505060405180910390f35b6000600460008781526020019081526020016000209050848160040181905550838160060181905550828160070181905550818160050181905550620007a3866103e8806000620010d4565b505050505050565b620007b562002321565b620007bf62002335565b600460008481526020019081526020016000206101606040519081016040529081600082015481526020016001820160009054906101000a900473ffffffffffffffffffffffffffffffffffffffff1673ffffffffffffffffffffffffffffffffffffffff1673ffffffffffffffffffffffffffffffffffffffff168152602001600282015481526020016003820154815260200160048201548152602001600582015481526020016006820154815260200160078201548152602001600882018054600181600116156101000203166002900480601f016020809104026020016040519081016040528092919081815260200182805460018160011615610100020316600290048015620009185780601f10620008ec5761010080835404028352916020019162000918565b820191906000526020600020905b815481529060010190602001808311620008fa57829003601f168201915b50505050508152602001600982018054600181600116156101000203166002900480601f016020809104026020016040519081016040528092919081815260200182805460018160011615610100020316600290048015620009be5780601f106200099257610100808354040283529160200191620009be565b820191906000526020600020905b815481529060010190602001808311620009a057829003601f168201915b50505050508152602001600a82018054600181600116156101000203166002900480601f01602080910402602001604051908101604052809291908181526020018280546001816001161561010002031660029004801562000a645780601f1062000a385761010080835404028352916020019162000a64565b820191906000526020600020905b81548152906001019060200180831162000a4657829003601f168201915b5050505050815250509050806101000151915050919050565b60008060009054906101000a900473ffffffffffffffffffffffffffffffffffffffff1673ffffffffffffffffffffffffffffffffffffffff163373ffffffffffffffffffffffffffffffffffffffff1614151562000adb57600080fd5b81600060146101000a81548160ff0219169083151502179055507fed31ba5dd6d358d47c38232d309f2cdd5f0e58c3eb67621a7f731fe2d7d838d282604051808215151515815260200191505060405180910390a160019050919050565b62000b4362002321565b62000b4d62002335565b600460008481526020019081526020016000206101606040519081016040529081600082015481526020016001820160009054906101000a900473ffffffffffffffffffffffffffffffffffffffff1673ffffffffffffffffffffffffffffffffffffffff1673ffffffffffffffffffffffffffffffffffffffff168152602001600282015481526020016003820154815260200160048201548152602001600582015481526020016006820154815260200160078201548152602001600882018054600181600116156101000203166002900480601f01602080910402602001604051908101604052809291908181526020018280546001816001161561010002031660029004801562000ca65780601f1062000c7a5761010080835404028352916020019162000ca6565b820191906000526020600020905b81548152906001019060200180831162000c8857829003601f168201915b50505050508152602001600982018054600181600116156101000203166002900480601f01602080910402602001604051908101604052809291908181526020018280546001816001161561010002031660029004801562000d4c5780601f1062000d205761010080835404028352916020019162000d4c565b820191906000526020600020905b81548152906001019060200180831162000d2e57829003601f168201915b50505050508152602001600a82018054600181600116156101000203166002900480601f01602080910402602001604051908101604052809291908181526020018280546001816001161561010002031660029004801562000df25780601f1062000dc65761010080835404028352916020019162000df2565b820191906000526020600020905b81548152906001019060200180831162000dd457829003601f168201915b5050505050815250509050806101200151915050919050565b600062000e1762002335565b600460008481526020019081526020016000206101606040519081016040529081600082015481526020016001820160009054906101000a900473ffffffffffffffffffffffffffffffffffffffff1673ffffffffffffffffffffffffffffffffffffffff1673ffffffffffffffffffffffffffffffffffffffff168152602001600282015481526020016003820154815260200160048201548152602001600582015481526020016006820154815260200160078201548152602001600882018054600181600116156101000203166002900480601f01602080910402602001604051908101604052809291908181526020018280546001816001161561010002031660029004801562000f705780601f1062000f445761010080835404028352916020019162000f70565b820191906000526020600020905b81548152906001019060200180831162000f5257829003601f168201915b50505050508152602001600982018054600181600116156101000203166002900480601f016020809104026020016040519081016040528092919081815260200182805460018160011615610100020316600290048015620010165780601f1062000fea5761010080835404028352916020019162001016565b820191906000526020600020905b81548152906001019060200180831162000ff857829003601f168201915b50505050508152602001600a82018054600181600116156101000203166002900480601f016020809104026020016040519081016040528092919081815260200182805460018160011615610100020316600290048015620010bc5780601f106200109057610100808354040283529160200191620010bc565b820191906000526020600020905b8154815290600101906020018083116200109e57829003601f168201915b50505050508152505090508060400151915050919050565b620010de62002335565b6000600460008781526020019081526020016000206101606040519081016040529081600082015481526020016001820160009054906101000a900473ffffffffffffffffffffffffffffffffffffffff1673ffffffffffffffffffffffffffffffffffffffff1673ffffffffffffffffffffffffffffffffffffffff168152602001600282015481526020016003820154815260200160048201548152602001600582015481526020016006820154815260200160078201548152602001600882018054600181600116156101000203166002900480601f016020809104026020016040519081016040528092919081815260200182805460018160011615610100020316600290048015620012395780601f106200120d5761010080835404028352916020019162001239565b820191906000526020600020905b8154815290600101906020018083116200121b57829003601f168201915b50505050508152602001600982018054600181600116156101000203166002900480601f016020809104026020016040519081016040528092919081815260200182805460018160011615610100020316600290048015620012df5780601f10620012b357610100808354040283529160200191620012df565b820191906000526020600020905b815481529060010190602001808311620012c157829003601f168201915b50505050508152602001600a82018054600181600116156101000203166002900480601f016020809104026020016040519081016040528092919081815260200182805460018160011615610100020316600290048015620013855780601f10620013595761010080835404028352916020019162001385565b820191906000526020600020905b8154815290600101906020018083116200136757829003601f168201915b50505050508152505091503382604001518360800151858560a00151888761010001518b8960c001518a60e001518b6101200151620013c3620023be565b808c73ffffffffffffffffffffffffffffffffffffffff1673ffffffffffffffffffffffffffffffffffffffff1681526020018b81526020018a8152602001898152602001888152602001878152602001806020018660ff1660ff16815260200185815260200184815260200180602001838103835288818151815260200191508051906020019080838360005b838110156200146e57808201518184015260208101905062001451565b50505050905090810190601f1680156200149c5780820380516001836020036101000a031916815260200191505b50838103825284818151815260200191508051906020019080838360005b83811015620014d7578082015181840152602081019050620014ba565b50505050905090810190601f168015620015055780820380516001836020036101000a031916815260200191505b509d5050505050505050505050505050604051809103906000f08015156200152c57600080fd5b9050505050505050565b6200154062002335565b600460008381526020019081526020016000206101606040519081016040529081600082015481526020016001820160009054906101000a900473ffffffffffffffffffffffffffffffffffffffff1673ffffffffffffffffffffffffffffffffffffffff1673ffffffffffffffffffffffffffffffffffffffff168152602001600282015481526020016003820154815260200160048201548152602001600582015481526020016006820154815260200160078201548152602001600882018054600181600116156101000203166002900480601f016020809104026020016040519081016040528092919081815260200182805460018160011615610100020316600290048015620016995780601f106200166d5761010080835404028352916020019162001699565b820191906000526020600020905b8154815290600101906020018083116200167b57829003601f168201915b50505050508152602001600982018054600181600116156101000203166002900480601f0160208091040260200160405190810160405280929190818152602001828054600181600116156101000203166002900480156200173f5780601f1062001713576101008083540402835291602001916200173f565b820191906000526020600020905b8154815290600101906020018083116200172157829003601f168201915b50505050508152602001600a82018054600181600116156101000203166002900480601f016020809104026020016040519081016040528092919081815260200182805460018160011615610100020316600290048015620017e55780601f10620017b957610100808354040283529160200191620017e5565b820191906000526020600020905b815481529060010190602001808311620017c757829003601f168201915b5050505050815250509050919050565b6000809054906101000a900473ffffffffffffffffffffffffffffffffffffffff1681565b600060056000848152602001908152602001600020600083815260200190815260200160002054905092915050565b62001853620023cf565b6200185d62002335565b600062001869620023cf565b6000600460008781526020019081526020016000206101606040519081016040529081600082015481526020016001820160009054906101000a900473ffffffffffffffffffffffffffffffffffffffff1673ffffffffffffffffffffffffffffffffffffffff1673ffffffffffffffffffffffffffffffffffffffff168152602001600282015481526020016003820154815260200160048201548152602001600582015481526020016006820154815260200160078201548152602001600882018054600181600116156101000203166002900480601f016020809104026020016040519081016040528092919081815260200182805460018160011615610100020316600290048015620019c45780601f106200199857610100808354040283529160200191620019c4565b820191906000526020600020905b815481529060010190602001808311620019a657829003601f168201915b50505050508152602001600982018054600181600116156101000203166002900480601f01602080910402602001604051908101604052809291908181526020018280546001816001161561010002031660029004801562001a6a5780601f1062001a3e5761010080835404028352916020019162001a6a565b820191906000526020600020905b81548152906001019060200180831162001a4c57829003601f168201915b50505050508152602001600a82018054600181600116156101000203166002900480601f01602080910402602001604051908101604052809291908181526020018280546001816001161561010002031660029004801562001b105780601f1062001ae45761010080835404028352916020019162001b10565b820191906000526020600020905b81548152906001019060200180831162001af257829003601f168201915b5050505050815250509350836060015192508260405180591062001b315750595b90808252806020026020018201604052509150600090505b8281101562001b895762001b5e86826200181a565b828281518110151562001b6d57fe5b9060200190602002018181525050808060010191505062001b49565b81945050505050919050565b60008060009054906101000a900473ffffffffffffffffffffffffffffffffffffffff1673ffffffffffffffffffffffffffffffffffffffff163373ffffffffffffffffffffffffffffffffffffffff1614151562001bf357600080fd5b60008273ffffffffffffffffffffffffffffffffffffffff16141562001c1857600080fd5b7f1f8d7d25344642d919d55999e4664aa452a5f424bc0936ceb9c2b300db7dcbd96000809054906101000a900473ffffffffffffffffffffffffffffffffffffffff1683604051808373ffffffffffffffffffffffffffffffffffffffff1673ffffffffffffffffffffffffffffffffffffffff1681526020018273ffffffffffffffffffffffffffffffffffffffff1673ffffffffffffffffffffffffffffffffffffffff1681526020019250505060405180910390a1816000806101000a81548173ffffffffffffffffffffffffffffffffffffffff021916908373ffffffffffffffffffffffffffffffffffffffff16021790555060019050919050565b60006004600060015481526020019081526020016000206003015490508160056000858152602001908152602001600020600083815260200190815260200160002081905550600181016004600085815260200190815260200160002060030181905550505050565b60408051908101604052808281526020016000815250600360003373ffffffffffffffffffffffffffffffffffffffff1673ffffffffffffffffffffffffffffffffffffffff168152602001908152602001600020600082015181600001908051906020019062001df5929190620023e3565b506020820151816001015590505050565b600060018060008282540192505081905550600a90506101606040519081016040528060015481526020013373ffffffffffffffffffffffffffffffffffffffff16815260200186815260200160008152602001828152602001828152602001828152602001828152602001858152602001848152602001838152506004600060015481526020019081526020016000206000820151816000015560208201518160010160006101000a81548173ffffffffffffffffffffffffffffffffffffffff021916908373ffffffffffffffffffffffffffffffffffffffff16021790555060408201518160020155606082015181600301556080820151816004015560a0820151816005015560c0820151816006015560e0820151816007015561010082015181600801908051906020019062001f439291906200246a565b5061012082015181600901908051906020019062001f639291906200246a565b5061014082015181600a01908051906020019062001f839291906200246a565b509050505050505050565b600060149054906101000a900460ff1681565b604080519081016040528082815260200160001515815250600260003373ffffffffffffffffffffffffffffffffffffffff1673ffffffffffffffffffffffffffffffffffffffff168152602001908152602001600020600082015181600001908051906020019062002016929190620023e3565b5060208201518160010160006101000a81548160ff02191690831515021790555090505050565b6000806000806200204d62002335565b600460008781526020019081526020016000206101606040519081016040529081600082015481526020016001820160009054906101000a900473ffffffffffffffffffffffffffffffffffffffff1673ffffffffffffffffffffffffffffffffffffffff1673ffffffffffffffffffffffffffffffffffffffff168152602001600282015481526020016003820154815260200160048201548152602001600582015481526020016006820154815260200160078201548152602001600882018054600181600116156101000203166002900480601f016020809104026020016040519081016040528092919081815260200182805460018160011615610100020316600290048015620021a65780601f106200217a57610100808354040283529160200191620021a6565b820191906000526020600020905b8154815290600101906020018083116200218857829003601f168201915b50505050508152602001600982018054600181600116156101000203166002900480601f0160208091040260200160405190810160405280929190818152602001828054600181600116156101000203166002900480156200224c5780601f1062002220576101008083540402835291602001916200224c565b820191906000526020600020905b8154815290600101906020018083116200222e57829003601f168201915b50505050508152602001600a82018054600181600116156101000203166002900480601f016020809104026020016040519081016040528092919081815260200182805460018160011615610100020316600290048015620022f25780601f10620022c657610100808354040283529160200191620022f2565b820191906000526020600020905b815481529060010190602001808311620022d457829003601f168201915b505050505081525050905080608001518160c001518260e001518360a001519450945094509450509193509193565b602060405190810160405280600081525090565b6101606040519081016040528060008152602001600073ffffffffffffffffffffffffffffffffffffffff1681526020016000815260200160008152602001600081526020016000815260200160008152602001600081526020016200239a620024f1565b8152602001620023a9620024f1565b8152602001620023b8620024f1565b81525090565b6040516121f8806200252e83390190565b602060405190810160405280600081525090565b828054600181600116156101000203166002900490600052602060002090601f016020900481019282601f106200242657805160ff191683800117855562002457565b8280016001018555821562002457579182015b828111156200245657825182559160200191906001019062002439565b5b50905062002466919062002505565b5090565b828054600181600116156101000203166002900490600052602060002090601f016020900481019282601f10620024ad57805160ff1916838001178555620024de565b82800160010185558215620024de579182015b82811115620024dd578251825591602001919060010190620024c0565b5b509050620024ed919062002505565b5090565b602060405190810160405280600081525090565b6200252a91905b80821115620025265760008160009055506001016200250c565b5090565b90560060606040526040805190810160405280600481526020017f48302e31000000000000000000000000000000000000000000000000000000008152506006908051906020019062000051929190620001f2565b5034156200005e57600080fd5b604051620021f8380380620021f8833981016040528080519060200190919080519060200190919080519060200190919080519060200190919080519060200190919080519060200190919080518201919060200180519060200190919080519060200190919080519060200190919080518201919050508585858383600160003373ffffffffffffffffffffffffffffffffffffffff1673ffffffffffffffffffffffffffffffffffffffff168152602001908152602001600020819055508360008190555082600390805190602001906200013d929190620001f2565b5081600460006101000a81548160ff021916908360ff160217905550806005908051906020019062000171929190620001f2565b50505050508a600760006101000a81548173ffffffffffffffffffffffffffffffffffffffff021916908373ffffffffffffffffffffffffffffffffffffffff1602179055508960088190555088600a8190555086600d8190555087600b8190555082600e8190555081600f819055505050505050505050505050620002a1565b828054600181600116156101000203166002900490600052602060002090601f016020900481019282601f106200023557805160ff191683800117855562000266565b8280016001018555821562000266579182015b828111156200026557825182559160200191906001019062000248565b5b50905062000275919062000279565b5090565b6200029e91905b808211156200029a57600081600090555060010162000280565b5090565b90565b611f4780620002b16000396000f30060606040526004361061011d576000357c0100000000000000000000000000000000000000000000000000000000900463ffffffff16806306fdde0314610122578063091e9a60146101b0578063095ea7b3146101d257806317727a001461022c57806318160ddd1461024157806323b872dd1461026a578063313ce567146102e35780633696a817146103125780634791abe11461033557806354fd4d501461038657806365ab841d1461041457806370a08231146104415780637d3d65221461048e57806395d89b41146104bb5780639f7aee8214610549578063a9059cbb1461059a578063cae9ca51146105f4578063d35e27d614610691578063dd62ed3e146106e6578063ebfdd32d14610752578063fc6dc17d14610789575b600080fd5b341561012d57600080fd5b6101356107da565b6040518080602001828103825283818151815260200191508051906020019080838360005b8381101561017557808201518184015260208101905061015a565b50505050905090810190601f1680156101a25780820380516001836020036101000a031916815260200191505b509250505060405180910390f35b6101b8610878565b604051808215151515815260200191505060405180910390f35b34156101dd57600080fd5b610212600480803573ffffffffffffffffffffffffffffffffffffffff16906020019091908035906020019091905050610d47565b604051808215151515815260200191505060405180910390f35b341561023757600080fd5b61023f610e39565b005b341561024c57600080fd5b610254610e9f565b6040518082815260200191505060405180910390f35b341561027557600080fd5b6102c9600480803573ffffffffffffffffffffffffffffffffffffffff1690602001909190803573ffffffffffffffffffffffffffffffffffffffff16906020019091908035906020019091905050610ea5565b604051808215151515815260200191505060405180910390f35b34156102ee57600080fd5b6102f6611111565b604051808260ff1660ff16815260200191505060405180910390f35b341561031d57600080fd5b6103336004808035906020019091905050611124565b005b341561034057600080fd5b61036c600480803573ffffffffffffffffffffffffffffffffffffffff1690602001909190505061116c565b604051808215151515815260200191505060405180910390f35b341561039157600080fd5b6103996112b2565b6040518080602001828103825283818151815260200191508051906020019080838360005b838110156103d95780820151818401526020810190506103be565b50505050905090810190601f1680156104065780820380516001836020036101000a031916815260200191505b509250505060405180910390f35b341561041f57600080fd5b610427611350565b604051808215151515815260200191505060405180910390f35b341561044c57600080fd5b610478600480803573ffffffffffffffffffffffffffffffffffffffff16906020019091905050611597565b6040518082815260200191505060405180910390f35b341561049957600080fd5b6104a16115e0565b604051808215151515815260200191505060405180910390f35b34156104c657600080fd5b6104ce6115ef565b6040518080602001828103825283818151815260200191508051906020019080838360005b8381101561050e5780820151818401526020810190506104f3565b50505050905090810190601f16801561053b5780820380516001836020036101000a031916815260200191505b509250505060405180910390f35b341561055457600080fd5b610580600480803573ffffffffffffffffffffffffffffffffffffffff1690602001909190505061168d565b604051808215151515815260200191505060405180910390f35b34156105a557600080fd5b6105da600480803573ffffffffffffffffffffffffffffffffffffffff169060200190919080359060200190919050506117d3565b604051808215151515815260200191505060405180910390f35b34156105ff57600080fd5b610677600480803573ffffffffffffffffffffffffffffffffffffffff1690602001909190803590602001909190803590602001908201803590602001908080601f0160208091040260200160405190810160405280939291908181526020018383808284378201915050505050509190505061192c565b604051808215151515815260200191505060405180910390f35b341561069c57600080fd5b6106a4611bcd565b604051808273ffffffffffffffffffffffffffffffffffffffff1673ffffffffffffffffffffffffffffffffffffffff16815260200191505060405180910390f35b34156106f157600080fd5b61073c600480803573ffffffffffffffffffffffffffffffffffffffff1690602001909190803573ffffffffffffffffffffffffffffffffffffffff16906020019091905050611c65565b6040518082815260200191505060405180910390f35b341561075d57600080fd5b6107736004808035906020019091905050611cec565b6040518082815260200191505060405180910390f35b341561079457600080fd5b6107c0600480803573ffffffffffffffffffffffffffffffffffffffff16906020019091905050611d30565b604051808215151515815260200191505060405180910390f35b60038054600181600116156101000203166002900480601f0160208091040260200160405190810160405280929190818152602001828054600181600116156101000203166002900480156108705780601f1061084557610100808354040283529160200191610870565b820191906000526020600020905b81548152906001019060200180831161085357829003601f168201915b505050505081565b600080600160003373ffffffffffffffffffffffffffffffffffffffff1673ffffffffffffffffffffffffffffffffffffffff1681526020019081526020016000205414156109c957606060405190810160405280600c5481526020016040805190810160405280600981526020017f416e6f6e796d6f7573000000000000000000000000000000000000000000000081525081526020016000600481111561091d57fe5b815250601660003373ffffffffffffffffffffffffffffffffffffffff1673ffffffffffffffffffffffffffffffffffffffff168152602001908152602001600020600082015181600001556020820151816001019080519060200190610985929190611e76565b5060408201518160020160006101000a81548160ff021916908360048111156109aa57fe5b0217905550905050600c60008154809291906001019190505550610ad7565b601073__BookQueueLib__________________________636cc5b745909133600160003373ffffffffffffffffffffffffffffffffffffffff1673ffffffffffffffffffffffffffffffffffffffff168152602001908152602001600020546000604051602001526040518463ffffffff167c0100000000000000000000000000000000000000000000000000000000028152600401808481526020018373ffffffffffffffffffffffffffffffffffffffff1673ffffffffffffffffffffffffffffffffffffffff168152602001828152602001935050505060206040518083038186803b1515610aba57600080fd5b6102c65a03f41515610acb57600080fd5b50505060405180519050505b34600160003373ffffffffffffffffffffffffffffffffffffffff1673ffffffffffffffffffffffffffffffffffffffff16815260200190815260200160002060008282540192505081905550601073__BookQueueLib__________________________63c2b025a89091600160003373ffffffffffffffffffffffffffffffffffffffff1673ffffffffffffffffffffffffffffffffffffffff16815260200190815260200160002054336040518463ffffffff167c0100000000000000000000000000000000000000000000000000000000028152600401808481526020018381526020018273ffffffffffffffffffffffffffffffffffffffff1673ffffffffffffffffffffffffffffffffffffffff168152602001935050505060006040518083038186803b1515610c0c57600080fd5b6102c65a03f41515610c1d57600080fd5b505050610c286115e0565b15610c6a577f1e61fe9a90d23ee89cf23cb1f66c1188b68372e59b6ad3470f3b26b564e966776001604051808215151515815260200191505060405180910390a15b601073__BookQueueLib__________________________63c2b025a8909134336040518463ffffffff167c0100000000000000000000000000000000000000000000000000000000028152600401808481526020018381526020018273ffffffffffffffffffffffffffffffffffffffff1673ffffffffffffffffffffffffffffffffffffffff168152602001935050505060006040518083038186803b1515610d1357600080fd5b6102c65a03f41515610d2457600080fd5b50505034600960008282540192505081905550610d4034611124565b6001905090565b600081600260003373ffffffffffffffffffffffffffffffffffffffff1673ffffffffffffffffffffffffffffffffffffffff16815260200190815260200160002060008573ffffffffffffffffffffffffffffffffffffffff1673ffffffffffffffffffffffffffffffffffffffff168152602001908152602001600020819055508273ffffffffffffffffffffffffffffffffffffffff163373ffffffffffffffffffffffffffffffffffffffff167f8c5be1e5ebec7d5bd14f71427d1e84f3dd0314c0f7b2291e5b200ac8c7c3b925846040518082815260200191505060405180910390a36001905092915050565b600760009054906101000a900473ffffffffffffffffffffffffffffffffffffffff1673ffffffffffffffffffffffffffffffffffffffff166108fc6009549081150290604051600060405180830381858888f193505050501515610e9d57600080fd5b565b60005481565b600081600160008673ffffffffffffffffffffffffffffffffffffffff1673ffffffffffffffffffffffffffffffffffffffff1681526020019081526020016000205410158015610f72575081600260008673ffffffffffffffffffffffffffffffffffffffff1673ffffffffffffffffffffffffffffffffffffffff16815260200190815260200160002060003373ffffffffffffffffffffffffffffffffffffffff1673ffffffffffffffffffffffffffffffffffffffff1681526020019081526020016000205410155b1515610f7d57600080fd5b81600160008573ffffffffffffffffffffffffffffffffffffffff1673ffffffffffffffffffffffffffffffffffffffff1681526020019081526020016000206000828254019250508190555081600160008673ffffffffffffffffffffffffffffffffffffffff1673ffffffffffffffffffffffffffffffffffffffff1681526020019081526020016000206000828254039250508190555081600260008673ffffffffffffffffffffffffffffffffffffffff1673ffffffffffffffffffffffffffffffffffffffff16815260200190815260200160002060003373ffffffffffffffffffffffffffffffffffffffff1673ffffffffffffffffffffffffffffffffffffffff168152602001908152602001600020600082825403925050819055508273ffffffffffffffffffffffffffffffffffffffff168473ffffffffffffffffffffffffffffffffffffffff167fddf252ad1be2c89b69c2b068fc378daa952ba7f163c4a11628f55a4df523b3ef846040518082815260200191505060405180910390a3600190509392505050565b600460009054906101000a900460ff1681565b6000600762015180600e54420381151561113a57fe5b0481151561114457fe5b0490508160176000838152602001908152602001600020600082825401925050819055505050565b60006001600481111561117b57fe5b601660008473ffffffffffffffffffffffffffffffffffffffff1673ffffffffffffffffffffffffffffffffffffffff16815260200190815260200160002060020160009054906101000a900460ff1660048111156111d657fe5b1415156111e257600080fd5b6002601660008473ffffffffffffffffffffffffffffffffffffffff1673ffffffffffffffffffffffffffffffffffffffff16815260200190815260200160002060020160006101000a81548160ff0219169083600481111561124157fe5b02179055507f2230584ab8fade77c64e5c255605d55e33bda0fd1da9b3b6b76e9554d36fc35133604051808273ffffffffffffffffffffffffffffffffffffffff1673ffffffffffffffffffffffffffffffffffffffff16815260200191505060405180910390a160019050919050565b60068054600181600116156101000203166002900480601f0160208091040260200160405190810160405280929190818152602001828054600181600116156101000203166002900480156113485780601f1061131d57610100808354040283529160200191611348565b820191906000526020600020905b81548152906001019060200180831161132b57829003601f168201915b505050505081565b60008061135b6115e0565b151561136657600080fd5b600b54600d541115151561137957600080fd5b600d60008154809291906001019190505550601073__BookQueueLib__________________________63358335c190916000604051602001526040518263ffffffff167c01000000000000000000000000000000000000000000000000000000000281526004018082815260200191505060206040518083038186803b151561140157600080fd5b6102c65a03f4151561141257600080fd5b5050506040518051905090506001601660008373ffffffffffffffffffffffffffffffffffffffff1673ffffffffffffffffffffffffffffffffffffffff16815260200190815260200160002060020160006101000a81548160ff0219169083600481111561147d57fe5b0217905550601073__BookQueueLib__________________________636cc5b745909183600160008673ffffffffffffffffffffffffffffffffffffffff1673ffffffffffffffffffffffffffffffffffffffff168152602001908152602001600020546000604051602001526040518463ffffffff167c0100000000000000000000000000000000000000000000000000000000028152600401808481526020018373ffffffffffffffffffffffffffffffffffffffff1673ffffffffffffffffffffffffffffffffffffffff168152602001828152602001935050505060206040518083038186803b151561157357600080fd5b6102c65a03f4151561158457600080fd5b5050506040518051905050600191505090565b6000600160008373ffffffffffffffffffffffffffffffffffffffff1673ffffffffffffffffffffffffffffffffffffffff168152602001908152602001600020549050919050565b6000600a546009541015905090565b60058054600181600116156101000203166002900480601f0160208091040260200160405190810160405280929190818152602001828054600181600116156101000203166002900480156116855780601f1061165a57610100808354040283529160200191611685565b820191906000526020600020905b81548152906001019060200180831161166857829003601f168201915b505050505081565b60006003600481111561169c57fe5b601660008473ffffffffffffffffffffffffffffffffffffffff1673ffffffffffffffffffffffffffffffffffffffff16815260200190815260200160002060020160009054906101000a900460ff1660048111156116f757fe5b14151561170357600080fd5b6004601660008473ffffffffffffffffffffffffffffffffffffffff1673ffffffffffffffffffffffffffffffffffffffff16815260200190815260200160002060020160006101000a81548160ff0219169083600481111561176257fe5b02179055507f2fdd254ca56018a3eb3ea6a2f2dfb7a10081074b5b2e020f868b4c61565353c082604051808273ffffffffffffffffffffffffffffffffffffffff1673ffffffffffffffffffffffffffffffffffffffff16815260200191505060405180910390a160019050919050565b600081600160003373ffffffffffffffffffffffffffffffffffffffff1673ffffffffffffffffffffffffffffffffffffffff168152602001908152602001600020541015151561182357600080fd5b81600160003373ffffffffffffffffffffffffffffffffffffffff1673ffffffffffffffffffffffffffffffffffffffff1681526020019081526020016000206000828254039250508190555081600160008573ffffffffffffffffffffffffffffffffffffffff1673ffffffffffffffffffffffffffffffffffffffff168152602001908152602001600020600082825401925050819055508273ffffffffffffffffffffffffffffffffffffffff163373ffffffffffffffffffffffffffffffffffffffff167fddf252ad1be2c89b69c2b068fc378daa952ba7f163c4a11628f55a4df523b3ef846040518082815260200191505060405180910390a36001905092915050565b600082600260003373ffffffffffffffffffffffffffffffffffffffff1673ffffffffffffffffffffffffffffffffffffffff16815260200190815260200160002060008673ffffffffffffffffffffffffffffffffffffffff1673ffffffffffffffffffffffffffffffffffffffff168152602001908152602001600020819055508373ffffffffffffffffffffffffffffffffffffffff163373ffffffffffffffffffffffffffffffffffffffff167f8c5be1e5ebec7d5bd14f71427d1e84f3dd0314c0f7b2291e5b200ac8c7c3b925856040518082815260200191505060405180910390a38373ffffffffffffffffffffffffffffffffffffffff1660405180807f72656365697665417070726f76616c28616464726573732c75696e743235362c81526020017f616464726573732c627974657329000000000000000000000000000000000000815250602e01905060405180910390207c01000000000000000000000000000000000000000000000000000000009004338530866040518563ffffffff167c0100000000000000000000000000000000000000000000000000000000028152600401808573ffffffffffffffffffffffffffffffffffffffff1673ffffffffffffffffffffffffffffffffffffffff1681526020018481526020018373ffffffffffffffffffffffffffffffffffffffff1673ffffffffffffffffffffffffffffffffffffffff168152602001828051906020019080838360005b83811015611b6d578082015181840152602081019050611b52565b50505050905090810190601f168015611b9a5780820380516001836020036101000a031916815260200191505b5094505050505060006040518083038160008761646e5a03f1925050501515611bc257600080fd5b600190509392505050565b6000601073__BookQueueLib__________________________63358335c190916000604051602001526040518263ffffffff167c01000000000000000000000000000000000000000000000000000000000281526004018082815260200191505060206040518083038186803b1515611c4557600080fd5b6102c65a03f41515611c5657600080fd5b50505060405180519050905090565b6000600260008473ffffffffffffffffffffffffffffffffffffffff1673ffffffffffffffffffffffffffffffffffffffff16815260200190815260200160002060008373ffffffffffffffffffffffffffffffffffffffff1673ffffffffffffffffffffffffffffffffffffffff16815260200190815260200160002054905092915050565b600080600060176000858152602001908152602001600020549150600782811515611d1357fe5b04915081600a54811515611d2357fe5b0490508092505050919050565b600060026004811115611d3f57fe5b601660008473ffffffffffffffffffffffffffffffffffffffff1673ffffffffffffffffffffffffffffffffffffffff16815260200190815260200160002060020160009054906101000a900460ff166004811115611d9a57fe5b141515611da657600080fd5b6003601660008473ffffffffffffffffffffffffffffffffffffffff1673ffffffffffffffffffffffffffffffffffffffff16815260200190815260200160002060020160006101000a81548160ff02191690836004811115611e0557fe5b02179055507f23ebbcb002c7eea3cd701655c9274556b48dfd35cdce070c2fbc9101b5f7159082604051808273ffffffffffffffffffffffffffffffffffffffff1673ffffffffffffffffffffffffffffffffffffffff16815260200191505060405180910390a160019050919050565b828054600181600116156101000203166002900490600052602060002090601f016020900481019282601f10611eb757805160ff1916838001178555611ee5565b82800160010185558215611ee5579182015b82811115611ee4578251825591602001919060010190611ec9565b5b509050611ef29190611ef6565b5090565b611f1891905b80821115611f14576000816000905550600101611efc565b5090565b905600a165627a7a72305820ab4a8d4d8f7e071820112d1e37253a539b5f9661b736829b3b8cf0a89b9c38cd0029a165627a7a7230582095a4b1777db848c97754bf518581e74d7e1a1514db2360aa47a46e2a5e889f150029",
  "source": "//BookStructPub - Decentralized BookStruct Self-Publishing Platform\r\n//Must work for many, many authors\r\n//Assume authors might have as many as 10,000,000 fans\r\n//Gonna be sweet!\r\n//------------------------------------------------------*\r\n\r\n/* Summary:\r\n// Authors fund book publishing by selling licensing equity via micro crowd funding\r\n1) Publish contract with initial supply of 0 and sell coins at fixed price\r\n2) Readers purchase coins to reveal ebook download, and get in line for a hard copy\r\n3) Any amount of coins purchased is acceptable, price as low as a penny if you like\r\n4) The more coins you hold, the higher in line you get to receive your hard copy\r\n5) Every coin you own represents a small piece of equity in licensing rights\r\n6) Equity is determined by the number of coins you hold in proportion to total supply\r\n7) When certain funding goals are met, users at the top of the line are shipped a hard copy\r\n8) Coin holders are legally entitled to licesnsing revenue if a deal is made with a publisher, movie studio, amusementpark, etc.\r\n*/\r\n\r\n/*MAY NOT COMPILE*/\r\n\r\npragma solidity ^0.4.15;\r\n\r\nimport \"./Stoppable.sol\";\r\nimport \"./Book.sol\";\r\n\r\ncontract BookPub is Stoppable {\r\n    uint bookID;            //ID applied to book upon pub, incrementing after each new book\r\n    //address bookAuthor\r\n    function BookPub(){\r\n        bookID = 0;\r\n      }\r\n    modifier isOwner() {\r\n      require(msg.sender == owner);\r\n      _;}           //Owner of BookStructPub Platform\r\n    modifier isAuthor() {\r\n      //  require(authors[msg.sender].totalEarned == 0);\r\n      _;}                                          //Author exists in Author mapping\r\n    modifier isReader() {\r\n      //    require(readers[msg.sender].readerUsername);\r\n      _;}                                          //Reader exists in Reader mapping\r\n\r\n    mapping(address => Reader) readers;\r\n    mapping(address => Author) authors;\r\n    mapping(uint => BookStruct) books;\r\n    //mapping(uint => uint) partnerShares;\r\n    mapping(uint=>mapping(uint=>uint)) partnerShares;\r\n    //Reader details [readersUsername, bookIDs purchased array]\r\n    struct Reader {\r\n      bytes readerUsername;      //Reader's username\r\n      bool eligible;\r\n      //uint[] booksPurchased;       //BookStructIDs of all owned books\r\n      }\r\n    //Author details [authorName, totalEarned, bookID published array]\r\n    struct Author {\r\n       bytes authorName;          //Author's legal name\r\n       uint totalEarned;            //How much has this writer earned?\r\n       //uint[] booksPublished;       //BookStructIDs of all published books\r\n      }\r\n\r\n    //BookStruct details [bookID, authorAddress, readershipStake, readers array]\r\n    struct BookStruct {\r\n      uint bookID;                 //Global book ID ++1\r\n      address authorAddress;       //Who was the author? Can be used to access Authors mapping\r\n      uint readershipStake;\r\n      //uint[] Partners;\r\n      uint numPartners;\r\n      uint goal\t;\r\n      uint eligibleCount;\r\n\t    uint startdate;\r\n\t    uint enddate;\r\n\r\n\t    string tokenName;\r\n\t    string tokenSymbol;\r\n\t    string governanceModel;\r\n\t  //How much equity did the author provision for readers?\r\n      }\r\n    function addPartner(uint _bookID,uint _share){\r\n      uint i=books[bookID].numPartners;\r\n\t    partnerShares[_bookID][i]=_share;\r\n\r\n      books[_bookID].numPartners=i+1;\r\n    }\r\n    function becomeReader(bytes _readerUsername) {\r\n      //Reader signs up to buy book coins\r\n      readers[msg.sender] = Reader({\r\n                                  readerUsername: _readerUsername,\r\n                                  eligible: false\r\n                                  });\r\n                                }\r\n    function becomeAuthor(bytes _authorName) {\r\n      //Author signs up to publish\r\n      authors[msg.sender] = Author({\r\n                                  authorName: _authorName,\r\n                                  totalEarned: 0\r\n                                  });\r\n                                }\r\n\r\n\r\n\r\n    function createBookStruct (uint _readershipStake,string _tokenName,string _tokenSymbol,string _governanceModel)\r\n      isAuthor() {\r\n       bookID += 1;\r\n\t\t   uint t=10;\r\n       //uint[] memory P = new uint[](10);//default 10 possible partners (possibly add option for more or less)\r\n\t\t   //uint[]  P;\r\n\t\t   //P[1]=12;\r\n\r\n\r\n        books[bookID] = BookStruct({\r\n                            bookID: bookID,\r\n                            authorAddress: msg.sender,\r\n                            readershipStake: _readershipStake,\r\n                            tokenName:_tokenName,\r\n                            tokenSymbol:_tokenSymbol,\r\n\t\t\t\t\t\t\t              governanceModel:_governanceModel,\r\n\t\t\t\t\t\t\t              goal:t,\r\n\t\t\t\t\t\t                startdate:t,\r\n\t \t\t\t\t\t\t              enddate:t,\r\n\t \t\t\t\t\t\t              eligibleCount:t,\r\n\t\t\t\t\t\t               //\tPartners:P,\r\n                            numPartners:0\r\n\r\n                            });\r\n                          }\r\n  function modifyBookStruct(uint _bookID,uint _goal,uint _startdate,uint _enddate,uint _eligibleCount)\r\n\t isAuthor()   {\r\n\t              BookStruct storage temp=books[_bookID];\r\n\t              temp.goal=_goal;\r\n\t              temp.startdate=_startdate;\r\n\t              temp.enddate=_enddate;\r\n\t              temp.eligibleCount=_eligibleCount;\r\n\r\n      //bytes data=0xa50b4f0;\r\n      publishBook( _bookID ,  uint8(1000), uint(1000),  uint(0) );\r\n   }\r\n\r\n  function publishBook(uint id, uint8 _decimalUnits,uint _initialAmount, uint _toBeShipped ){\r\n     BookStruct memory temp=books[id];\r\n\r\n     Book newBook = new Book(msg.sender, temp.readershipStake, temp.goal, _toBeShipped,\r\n                             temp.eligibleCount, _initialAmount, temp.tokenName,_decimalUnits,temp.startdate,temp.enddate,temp.tokenSymbol);\r\n   }\r\n\r\n   function structRet(uint n)  public returns(uint){\r\n     BookStruct memory b= books[n];\r\n     return b.readershipStake;\r\n\r\n   }\r\n   function nameret(uint n)  public returns(string){\r\n     BookStruct memory b= books[n];\r\n     return b.tokenName;\r\n\r\n   }\r\n   function symbolret(uint n)  public returns(string){\r\n     BookStruct memory b= books[n];\r\n     return b.tokenSymbol;\r\n\r\n   }\r\n   function getBookStruct(uint n) public  returns (BookStruct) {\r\n     return books[n];\r\n   }\r\n   function getOtherparams(uint n) returns(uint,uint,uint,uint){\r\n     BookStruct memory b= books[n];\r\n     return(b.goal,b.startdate,b.enddate,b.eligibleCount);\r\n\r\n }\r\n  function getPartnerShare(uint n,uint m) public  returns (uint) {\r\n    return  partnerShares[n][m];\r\n  }\r\n  function returnallShares(uint n) public returns (uint[]){\r\n    BookStruct memory B=books[n];\r\n    uint sz=B.numPartners;\r\n    uint[] memory P = new uint[](sz);\r\n    for(uint i=0;i<sz;i++){\r\n    P[i]=getPartnerShare(n,i);\r\n\r\n  }\r\n  return P;\r\n}\r\n}\r\n",
  "sourcePath": "/home/jjj/BookPub/BookPub/contracts/BookPub.sol",
  "compiler": {
    "name": "solc",
    "version": "0.4.19+commit.c4cbbb05.Emscripten.clang"
  },
  "schemaVersion": "1.0.1",
  "updatedAt": "2018-02-10T19:09:42.474Z"
}