{
  "contractName": "BookDistLib",
  "abi": [
    {
      "constant": false,
      "inputs": [],
      "name": "requestDelivery",
      "outputs": [],
      "payable": false,
      "stateMutability": "nonpayable",
      "type": "function"
    },
    {
      "constant": false,
      "inputs": [
        {
          "name": "readers",
          "type": "uint256"
        }
      ],
      "name": "prepShip",
      "outputs": [],
      "payable": false,
      "stateMutability": "nonpayable",
      "type": "function"
    },
    {
      "constant": false,
      "inputs": [
        {
          "name": "reader",
          "type": "address"
        }
      ],
      "name": "markShipped",
      "outputs": [],
      "payable": false,
      "stateMutability": "nonpayable",
      "type": "function"
    },
    {
      "anonymous": false,
      "inputs": [],
      "name": "NewQualifyingReaders",
      "type": "event"
    },
    {
      "anonymous": false,
      "inputs": [
        {
          "indexed": false,
          "name": "reader",
          "type": "address"
        }
      ],
      "name": "BookRequested",
      "type": "event"
    },
    {
      "anonymous": false,
      "inputs": [
        {
          "indexed": false,
          "name": "reader",
          "type": "address"
        }
      ],
      "name": "LogBookShipped",
      "type": "event"
    }
  ],
  "bytecode": "0x6060604052341561000f57600080fd5b6101a68061001e6000396000f300606060405260043610610057576000357c0100000000000000000000000000000000000000000000000000000000900463ffffffff16806330f7451e1461005c578063988e039014610066578063fc6dc17d1461007e575b600080fd5b6100646100ac565b005b61007c6004808035906020019091905050610111565b005b6100aa600480803573ffffffffffffffffffffffffffffffffffffffff16906020019091905050610114565b005b7f2230584ab8fade77c64e5c255605d55e33bda0fd1da9b3b6b76e9554d36fc35133604051808273ffffffffffffffffffffffffffffffffffffffff1673ffffffffffffffffffffffffffffffffffffffff16815260200191505060405180910390a1565b50565b7f23ebbcb002c7eea3cd701655c9274556b48dfd35cdce070c2fbc9101b5f7159081604051808273ffffffffffffffffffffffffffffffffffffffff1673ffffffffffffffffffffffffffffffffffffffff16815260200191505060405180910390a1505600a165627a7a723058205a2a2b75d256f7a953b16acb5f3f761806d215ba49ca0859ea11a3a55ff1cbaf0029",
  "source": "pragma solidity ^0.4.15;\n\n\nimport \"./BookPub.sol\";\n\nlibrary BookDistLib {\n\n  event NewQualifyingReaders ();          //Some readers become eligible after goal is met\n  event BookRequested(address reader);    //Reader claims book\n  event LogBookShipped(address reader);   //Author sends shipping confirmation\n\n  //Some readers become eligible to claim hard copy upon funding goal\n  function prepShip(uint readers){\n    //getFirstInLine(BookQueue storage queue)\n    //Book.readerEligibilityAndBalance.eligibleForBook = true;\n    }\n  //Readers can claim hard copy after they become eligible\n  function requestDelivery (){\n    //require(Book.readerEligibilityAndBalance.eligibleForBook = false = true);\n    //Book.readerEligibilityAndBalance.eligibleForBook = false;\n    BookRequested(msg.sender);\n    }\n  function markShipped (address reader){\n    //How should I alert the reader?\n    LogBookShipped(reader);\n    }\n\n}\n",
  "sourcePath": "/Users/marius/wip/BookPub/contracts/BookDistLib.sol",
  "compiler": {
    "name": "solc",
    "version": "0.4.18+commit.9cf6e910.Emscripten.clang"
  },
  "schemaVersion": "1.0.1",
  "updatedAt": "2018-01-28T20:02:00.088Z"
}