{
  "contractName": "BookPub",
  "abi": [
    {
      "constant": false,
      "inputs": [
        {
          "name": "n",
          "type": "uint256"
        }
      ],
      "name": "nameret",
      "outputs": [
        {
          "name": "",
          "type": "string"
        }
      ],
      "payable": false,
      "stateMutability": "nonpayable",
      "type": "function"
    },
    {
      "constant": false,
      "inputs": [
        {
          "name": "onOff",
          "type": "bool"
        }
      ],
      "name": "runSwitch",
      "outputs": [
        {
          "name": "success",
          "type": "bool"
        }
      ],
      "payable": false,
      "stateMutability": "nonpayable",
      "type": "function"
    },
    {
      "constant": false,
      "inputs": [
        {
          "name": "n",
          "type": "uint256"
        }
      ],
      "name": "symbolret",
      "outputs": [
        {
          "name": "",
          "type": "string"
        }
      ],
      "payable": false,
      "stateMutability": "nonpayable",
      "type": "function"
    },
    {
      "constant": false,
      "inputs": [
        {
          "name": "n",
          "type": "uint256"
        }
      ],
      "name": "structRet",
      "outputs": [
        {
          "name": "",
          "type": "uint256"
        }
      ],
      "payable": false,
      "stateMutability": "nonpayable",
      "type": "function"
    },
    {
      "constant": false,
      "inputs": [
        {
          "name": "_bookID",
          "type": "uint256"
        },
        {
          "name": "_goal",
          "type": "uint256"
        },
        {
          "name": "_startdate",
          "type": "uint256"
        },
        {
          "name": "_enddate",
          "type": "uint256"
        },
        {
          "name": "_eligibleCount",
          "type": "uint256"
        },
        {
          "name": "_coinAmount",
          "type": "uint256"
        }
      ],
      "name": "modifyBook",
      "outputs": [],
      "payable": false,
      "stateMutability": "nonpayable",
      "type": "function"
    },
    {
      "constant": false,
      "inputs": [
        {
          "name": "_readershipStake",
          "type": "uint256"
        },
        {
          "name": "_tokenName",
          "type": "string"
        },
        {
          "name": "_tokenSymbol",
          "type": "string"
        },
        {
          "name": "_governanceModel",
          "type": "string"
        }
      ],
      "name": "publishBook",
      "outputs": [],
      "payable": false,
      "stateMutability": "nonpayable",
      "type": "function"
    },
    {
      "constant": true,
      "inputs": [],
      "name": "owner",
      "outputs": [
        {
          "name": "",
          "type": "address"
        }
      ],
      "payable": false,
      "stateMutability": "view",
      "type": "function"
    },
    {
      "constant": false,
      "inputs": [
        {
          "name": "n",
          "type": "uint256"
        },
        {
          "name": "m",
          "type": "uint256"
        }
      ],
      "name": "getPartnerShare",
      "outputs": [
        {
          "name": "",
          "type": "uint256"
        }
      ],
      "payable": false,
      "stateMutability": "nonpayable",
      "type": "function"
    },
    {
      "constant": false,
      "inputs": [
        {
          "name": "n",
          "type": "uint256"
        }
      ],
      "name": "returnallShares",
      "outputs": [
        {
          "name": "",
          "type": "uint256[]"
        }
      ],
      "payable": false,
      "stateMutability": "nonpayable",
      "type": "function"
    },
    {
      "constant": false,
      "inputs": [
        {
          "name": "newOwner",
          "type": "address"
        }
      ],
      "name": "changeOwner",
      "outputs": [
        {
          "name": "success",
          "type": "bool"
        }
      ],
      "payable": false,
      "stateMutability": "nonpayable",
      "type": "function"
    },
    {
      "constant": false,
      "inputs": [
        {
          "name": "_bookID",
          "type": "uint256"
        },
        {
          "name": "_share",
          "type": "uint256"
        }
      ],
      "name": "addPartner",
      "outputs": [],
      "payable": false,
      "stateMutability": "nonpayable",
      "type": "function"
    },
    {
      "constant": false,
      "inputs": [
        {
          "name": "_authorName",
          "type": "bytes"
        }
      ],
      "name": "becomeAuthor",
      "outputs": [],
      "payable": false,
      "stateMutability": "nonpayable",
      "type": "function"
    },
    {
      "constant": true,
      "inputs": [],
      "name": "running",
      "outputs": [
        {
          "name": "",
          "type": "bool"
        }
      ],
      "payable": false,
      "stateMutability": "view",
      "type": "function"
    },
    {
      "constant": false,
      "inputs": [
        {
          "name": "n",
          "type": "uint256"
        }
      ],
      "name": "getBook",
      "outputs": [
        {
          "components": [
            {
              "name": "bookID",
              "type": "uint256"
            },
            {
              "name": "authorAddress",
              "type": "address"
            },
            {
              "name": "readershipStake",
              "type": "uint256"
            },
            {
              "name": "numPartners",
              "type": "uint256"
            },
            {
              "name": "goal",
              "type": "uint256"
            },
            {
              "name": "eligibleCount",
              "type": "uint256"
            },
            {
              "name": "startdate",
              "type": "uint256"
            },
            {
              "name": "enddate",
              "type": "uint256"
            },
            {
              "name": "coinAmount",
              "type": "uint256"
            },
            {
              "name": "tokenName",
              "type": "string"
            },
            {
              "name": "tokenSymbol",
              "type": "string"
            },
            {
              "name": "governanceModel",
              "type": "string"
            }
          ],
          "name": "",
          "type": "tuple"
        }
      ],
      "payable": false,
      "stateMutability": "nonpayable",
      "type": "function"
    },
    {
      "constant": false,
      "inputs": [
        {
          "name": "_readerUsername",
          "type": "bytes"
        }
      ],
      "name": "becomeReader",
      "outputs": [],
      "payable": false,
      "stateMutability": "nonpayable",
      "type": "function"
    },
    {
      "constant": false,
      "inputs": [
        {
          "name": "n",
          "type": "uint256"
        }
      ],
      "name": "getOtherparams",
      "outputs": [
        {
          "name": "",
          "type": "uint256"
        },
        {
          "name": "",
          "type": "uint256"
        },
        {
          "name": "",
          "type": "uint256"
        },
        {
          "name": "",
          "type": "uint256"
        },
        {
          "name": "",
          "type": "uint256"
        }
      ],
      "payable": false,
      "stateMutability": "nonpayable",
      "type": "function"
    },
    {
      "inputs": [
        {
          "name": "bookAuthor",
          "type": "address"
        }
      ],
      "payable": false,
      "stateMutability": "nonpayable",
      "type": "constructor"
    },
    {
      "anonymous": false,
      "inputs": [
        {
          "indexed": false,
          "name": "switchSetting",
          "type": "bool"
        }
      ],
      "name": "LogRunSwitch",
      "type": "event"
    },
    {
      "anonymous": false,
      "inputs": [
        {
          "indexed": false,
          "name": "_owner",
          "type": "address"
        },
        {
          "indexed": false,
          "name": "newOwner",
          "type": "address"
        }
      ],
      "name": "LogNewOwner",
      "type": "event"
    }
  ],
  "bytecode": "0x6060604052341561000f57600080fd5b6040516020806120cf83398101604052808051906020019091905050336000806101000a81548173ffffffffffffffffffffffffffffffffffffffff021916908373ffffffffffffffffffffffffffffffffffffffff1602179055506001600060146101000a81548160ff0219169083151502179055506000600181905550506120318061009e6000396000f3006060604052600436106100e6576000357c0100000000000000000000000000000000000000000000000000000000900463ffffffff16806320b45620146100eb5780632dd97058146101875780633c3ee355146101c45780633e473dd3146102605780636172aec41461029757806380ee9581146102e75780638da5cb5b146103d3578063907f597d146104285780639967edb814610468578063a6f9dae1146104e0578063b5bb4ec414610531578063b9f68d9d1461055d578063d85bd526146105ba578063e0ff5b8b146105e7578063e2579f9a1461061e578063e63ab2771461067b575b600080fd5b34156100f657600080fd5b61010c60048080359060200190919050506106ce565b6040518080602001828103825283818151815260200191508051906020019080838360005b8381101561014c578082015181840152602081019050610131565b50505050905090810190601f1680156101795780820380516001836020036101000a031916815260200191505b509250505060405180910390f35b341561019257600080fd5b6101aa6004808035151590602001909190505061099a565b604051808215151515815260200191505060405180910390f35b34156101cf57600080fd5b6101e56004808035906020019091905050610a55565b6040518080602001828103825283818151815260200191508051906020019080838360005b8381101561022557808201518184015260208101905061020a565b50505050905090810190601f1680156102525780820380516001836020036101000a031916815260200191505b509250505060405180910390f35b341561026b57600080fd5b6102816004808035906020019091905050610d21565b6040518082815260200191505060405180910390f35b34156102a257600080fd5b6102e56004808035906020019091908035906020019091908035906020019091908035906020019091908035906020019091908035906020019091905050610fe6565b005b34156102f257600080fd5b6103d1600480803590602001909190803590602001908201803590602001908080601f0160208091040260200160405190810160405280939291908181526020018383808284378201915050505050509190803590602001908201803590602001908080601f0160208091040260200160405190810160405280939291908181526020018383808284378201915050505050509190803590602001908201803590602001908080601f01602080910402602001604051908101604052809392919081815260200183838082843782019150505050505091905050611033565b005b34156103de57600080fd5b6103e66111c7565b604051808273ffffffffffffffffffffffffffffffffffffffff1673ffffffffffffffffffffffffffffffffffffffff16815260200191505060405180910390f35b341561043357600080fd5b61045260048080359060200190919080359060200190919050506111ec565b6040518082815260200191505060405180910390f35b341561047357600080fd5b610489600480803590602001909190505061121b565b6040518080602001828103825283818151815260200191508051906020019060200280838360005b838110156104cc5780820151818401526020810190506104b1565b505050509050019250505060405180910390f35b34156104eb57600080fd5b610517600480803573ffffffffffffffffffffffffffffffffffffffff16906020019091905050611559565b604051808215151515815260200191505060405180910390f35b341561053c57600080fd5b61055b60048080359060200190919080359060200190919050506116db565b005b341561056857600080fd5b6105b8600480803590602001908201803590602001908080601f01602080910402602001604051908101604052809392919081815260200183838082843782019150505050505091905050611744565b005b34156105c557600080fd5b6105cd6117c6565b604051808215151515815260200191505060405180910390f35b34156105f257600080fd5b61060860048080359060200190919050506117d9565b6040518082815260200191505060405180910390f35b341561062957600080fd5b610679600480803590602001908201803590602001908080601f01602080910402602001604051908101604052809392919081815260200183838082843782019150505050505091905050611a94565b005b341561068657600080fd5b61069c6004808035906020019091905050611b2e565b604051808681526020018581526020018481526020018381526020018281526020019550505050505060405180910390f35b6106d6611e1a565b6106de611e2e565b600460008481526020019081526020016000206101806040519081016040529081600082015481526020016001820160009054906101000a900473ffffffffffffffffffffffffffffffffffffffff1673ffffffffffffffffffffffffffffffffffffffff1673ffffffffffffffffffffffffffffffffffffffff16815260200160028201548152602001600382015481526020016004820154815260200160058201548152602001600682015481526020016007820154815260200160088201548152602001600982018054600181600116156101000203166002900480601f01602080910402602001604051908101604052809291908181526020018280546001816001161561010002031660029004801561083d5780601f106108125761010080835404028352916020019161083d565b820191906000526020600020905b81548152906001019060200180831161082057829003601f168201915b50505050508152602001600a82018054600181600116156101000203166002900480601f0160208091040260200160405190810160405280929190818152602001828054600181600116156101000203166002900480156108df5780601f106108b4576101008083540402835291602001916108df565b820191906000526020600020905b8154815290600101906020018083116108c257829003601f168201915b50505050508152602001600b82018054600181600116156101000203166002900480601f0160208091040260200160405190810160405280929190818152602001828054600181600116156101000203166002900480156109815780601f1061095657610100808354040283529160200191610981565b820191906000526020600020905b81548152906001019060200180831161096457829003601f168201915b5050505050815250509050806101200151915050919050565b60008060009054906101000a900473ffffffffffffffffffffffffffffffffffffffff1673ffffffffffffffffffffffffffffffffffffffff163373ffffffffffffffffffffffffffffffffffffffff161415156109f757600080fd5b81600060146101000a81548160ff0219169083151502179055507fed31ba5dd6d358d47c38232d309f2cdd5f0e58c3eb67621a7f731fe2d7d838d282604051808215151515815260200191505060405180910390a160019050919050565b610a5d611e1a565b610a65611e2e565b600460008481526020019081526020016000206101806040519081016040529081600082015481526020016001820160009054906101000a900473ffffffffffffffffffffffffffffffffffffffff1673ffffffffffffffffffffffffffffffffffffffff1673ffffffffffffffffffffffffffffffffffffffff16815260200160028201548152602001600382015481526020016004820154815260200160058201548152602001600682015481526020016007820154815260200160088201548152602001600982018054600181600116156101000203166002900480601f016020809104026020016040519081016040528092919081815260200182805460018160011615610100020316600290048015610bc45780601f10610b9957610100808354040283529160200191610bc4565b820191906000526020600020905b815481529060010190602001808311610ba757829003601f168201915b50505050508152602001600a82018054600181600116156101000203166002900480601f016020809104026020016040519081016040528092919081815260200182805460018160011615610100020316600290048015610c665780601f10610c3b57610100808354040283529160200191610c66565b820191906000526020600020905b815481529060010190602001808311610c4957829003601f168201915b50505050508152602001600b82018054600181600116156101000203166002900480601f016020809104026020016040519081016040528092919081815260200182805460018160011615610100020316600290048015610d085780601f10610cdd57610100808354040283529160200191610d08565b820191906000526020600020905b815481529060010190602001808311610ceb57829003601f168201915b5050505050815250509050806101400151915050919050565b6000610d2b611e2e565b600460008481526020019081526020016000206101806040519081016040529081600082015481526020016001820160009054906101000a900473ffffffffffffffffffffffffffffffffffffffff1673ffffffffffffffffffffffffffffffffffffffff1673ffffffffffffffffffffffffffffffffffffffff16815260200160028201548152602001600382015481526020016004820154815260200160058201548152602001600682015481526020016007820154815260200160088201548152602001600982018054600181600116156101000203166002900480601f016020809104026020016040519081016040528092919081815260200182805460018160011615610100020316600290048015610e8a5780601f10610e5f57610100808354040283529160200191610e8a565b820191906000526020600020905b815481529060010190602001808311610e6d57829003601f168201915b50505050508152602001600a82018054600181600116156101000203166002900480601f016020809104026020016040519081016040528092919081815260200182805460018160011615610100020316600290048015610f2c5780601f10610f0157610100808354040283529160200191610f2c565b820191906000526020600020905b815481529060010190602001808311610f0f57829003601f168201915b50505050508152602001600b82018054600181600116156101000203166002900480601f016020809104026020016040519081016040528092919081815260200182805460018160011615610100020316600290048015610fce5780601f10610fa357610100808354040283529160200191610fce565b820191906000526020600020905b815481529060010190602001808311610fb157829003601f168201915b50505050508152505090508060400151915050919050565b600060046000888152602001908152602001600020905085816004018190555084816006018190555083816007018190555082816005018190555081816008018190555050505050505050565b600060018060008282540192505081905550600a90506101806040519081016040528060015481526020013373ffffffffffffffffffffffffffffffffffffffff1681526020018681526020016000815260200182815260200182815260200182815260200182815260200160008152602001858152602001848152602001838152506004600060015481526020019081526020016000206000820151816000015560208201518160010160006101000a81548173ffffffffffffffffffffffffffffffffffffffff021916908373ffffffffffffffffffffffffffffffffffffffff16021790555060408201518160020155606082015181600301556080820151816004015560a0820151816005015560c0820151816006015560e082015181600701556101008201518160080155610120820151816009019080519060200190611180929190611eb8565b5061014082015181600a01908051906020019061119e929190611eb8565b5061016082015181600b0190805190602001906111bc929190611eb8565b509050505050505050565b6000809054906101000a900473ffffffffffffffffffffffffffffffffffffffff1681565b600060056000848152602001908152602001600020600083815260200190815260200160002054905092915050565b611223611f38565b61122b611e2e565b6000611235611f38565b6000600460008781526020019081526020016000206101806040519081016040529081600082015481526020016001820160009054906101000a900473ffffffffffffffffffffffffffffffffffffffff1673ffffffffffffffffffffffffffffffffffffffff1673ffffffffffffffffffffffffffffffffffffffff16815260200160028201548152602001600382015481526020016004820154815260200160058201548152602001600682015481526020016007820154815260200160088201548152602001600982018054600181600116156101000203166002900480601f0160208091040260200160405190810160405280929190818152602001828054600181600116156101000203166002900480156113965780601f1061136b57610100808354040283529160200191611396565b820191906000526020600020905b81548152906001019060200180831161137957829003601f168201915b50505050508152602001600a82018054600181600116156101000203166002900480601f0160208091040260200160405190810160405280929190818152602001828054600181600116156101000203166002900480156114385780601f1061140d57610100808354040283529160200191611438565b820191906000526020600020905b81548152906001019060200180831161141b57829003601f168201915b50505050508152602001600b82018054600181600116156101000203166002900480601f0160208091040260200160405190810160405280929190818152602001828054600181600116156101000203166002900480156114da5780601f106114af576101008083540402835291602001916114da565b820191906000526020600020905b8154815290600101906020018083116114bd57829003601f168201915b505050505081525050935083606001519250826040518059106114fa5750595b90808252806020026020018201604052509150600090505b8281101561154d5761152486826111ec565b828281518110151561153257fe5b90602001906020020181815250508080600101915050611512565b81945050505050919050565b60008060009054906101000a900473ffffffffffffffffffffffffffffffffffffffff1673ffffffffffffffffffffffffffffffffffffffff163373ffffffffffffffffffffffffffffffffffffffff161415156115b657600080fd5b60008273ffffffffffffffffffffffffffffffffffffffff1614156115da57600080fd5b7f1f8d7d25344642d919d55999e4664aa452a5f424bc0936ceb9c2b300db7dcbd96000809054906101000a900473ffffffffffffffffffffffffffffffffffffffff1683604051808373ffffffffffffffffffffffffffffffffffffffff1673ffffffffffffffffffffffffffffffffffffffff1681526020018273ffffffffffffffffffffffffffffffffffffffff1673ffffffffffffffffffffffffffffffffffffffff1681526020019250505060405180910390a1816000806101000a81548173ffffffffffffffffffffffffffffffffffffffff021916908373ffffffffffffffffffffffffffffffffffffffff16021790555060019050919050565b60006004600060015481526020019081526020016000206003015490508160056000858152602001908152602001600020600083815260200190815260200160002081905550600181016004600085815260200190815260200160002060030181905550505050565b60408051908101604052808281526020016000815250600360003373ffffffffffffffffffffffffffffffffffffffff1673ffffffffffffffffffffffffffffffffffffffff16815260200190815260200160002060008201518160000190805190602001906117b5929190611f4c565b506020820151816001015590505050565b600060149054906101000a900460ff1681565b6117e1611e2e565b600460008381526020019081526020016000206101806040519081016040529081600082015481526020016001820160009054906101000a900473ffffffffffffffffffffffffffffffffffffffff1673ffffffffffffffffffffffffffffffffffffffff1673ffffffffffffffffffffffffffffffffffffffff16815260200160028201548152602001600382015481526020016004820154815260200160058201548152602001600682015481526020016007820154815260200160088201548152602001600982018054600181600116156101000203166002900480601f0160208091040260200160405190810160405280929190818152602001828054600181600116156101000203166002900480156119405780601f1061191557610100808354040283529160200191611940565b820191906000526020600020905b81548152906001019060200180831161192357829003601f168201915b50505050508152602001600a82018054600181600116156101000203166002900480601f0160208091040260200160405190810160405280929190818152602001828054600181600116156101000203166002900480156119e25780601f106119b7576101008083540402835291602001916119e2565b820191906000526020600020905b8154815290600101906020018083116119c557829003601f168201915b50505050508152602001600b82018054600181600116156101000203166002900480601f016020809104026020016040519081016040528092919081815260200182805460018160011615610100020316600290048015611a845780601f10611a5957610100808354040283529160200191611a84565b820191906000526020600020905b815481529060010190602001808311611a6757829003601f168201915b5050505050815250509050919050565b604080519081016040528082815260200160001515815250600260003373ffffffffffffffffffffffffffffffffffffffff1673ffffffffffffffffffffffffffffffffffffffff1681526020019081526020016000206000820151816000019080519060200190611b07929190611f4c565b5060208201518160010160006101000a81548160ff02191690831515021790555090505050565b6000806000806000611b3e611e2e565b600460008881526020019081526020016000206101806040519081016040529081600082015481526020016001820160009054906101000a900473ffffffffffffffffffffffffffffffffffffffff1673ffffffffffffffffffffffffffffffffffffffff1673ffffffffffffffffffffffffffffffffffffffff16815260200160028201548152602001600382015481526020016004820154815260200160058201548152602001600682015481526020016007820154815260200160088201548152602001600982018054600181600116156101000203166002900480601f016020809104026020016040519081016040528092919081815260200182805460018160011615610100020316600290048015611c9d5780601f10611c7257610100808354040283529160200191611c9d565b820191906000526020600020905b815481529060010190602001808311611c8057829003601f168201915b50505050508152602001600a82018054600181600116156101000203166002900480601f016020809104026020016040519081016040528092919081815260200182805460018160011615610100020316600290048015611d3f5780601f10611d1457610100808354040283529160200191611d3f565b820191906000526020600020905b815481529060010190602001808311611d2257829003601f168201915b50505050508152602001600b82018054600181600116156101000203166002900480601f016020809104026020016040519081016040528092919081815260200182805460018160011615610100020316600290048015611de15780601f10611db657610100808354040283529160200191611de1565b820191906000526020600020905b815481529060010190602001808311611dc457829003601f168201915b505050505081525050905080608001518160c001518260e001518360a00151846101000151955095509550955095505091939590929450565b602060405190810160405280600081525090565b6101806040519081016040528060008152602001600073ffffffffffffffffffffffffffffffffffffffff16815260200160008152602001600081526020016000815260200160008152602001600081526020016000815260200160008152602001611e98611fcc565b8152602001611ea5611fcc565b8152602001611eb2611fcc565b81525090565b828054600181600116156101000203166002900490600052602060002090601f016020900481019282601f10611ef957805160ff1916838001178555611f27565b82800160010185558215611f27579182015b82811115611f26578251825591602001919060010190611f0b565b5b509050611f349190611fe0565b5090565b602060405190810160405280600081525090565b828054600181600116156101000203166002900490600052602060002090601f016020900481019282601f10611f8d57805160ff1916838001178555611fbb565b82800160010185558215611fbb579182015b82811115611fba578251825591602001919060010190611f9f565b5b509050611fc89190611fe0565b5090565b602060405190810160405280600081525090565b61200291905b80821115611ffe576000816000905550600101611fe6565b5090565b905600a165627a7a72305820f5fe98a93ea384b46a07e4797d6ab30ae236757a3ba04c3f5948081bf2cb9c1f0029",
  "source": "//BookPub - Decentralized Book Self-Publishing Platform\r\n//Must work for many, many authors\r\n//Assume authors might have as many as 10,000,000 fans\r\n//Gonna be sweet!\r\n//------------------------------------------------------*\r\n\r\n/* Summary:\r\n// Authors fund book publishing by selling licensing equity via micro crowd funding\r\n1) Publish contract with initial supply of 0 and sell coins at fixed price\r\n2) Readers purchase coins to reveal ebook download, and get in line for a hard copy\r\n3) Any amount of coins purchased is acceptable, price as low as a penny if you like\r\n4) The more coins you hold, the higher in line you get to receive your hard copy\r\n5) Every coin you own represents a small piece of equity in licensing rights\r\n6) Equity is determined by the number of coins you hold in proportion to total supply\r\n7) When certain funding goals are met, users at the top of the line are shipped a hard copy\r\n8) Coin holders are legally entitled to licesnsing revenue if a deal is made with a publisher, movie studio, amusementpark, etc.\r\n*/\r\n\r\n/*MAY NOT COMPILE*/\r\n\r\npragma solidity ^0.4.15;\r\n\r\nimport \"./Stoppable.sol\";\r\n\r\ncontract BookPub is Stoppable {\r\n    uint bookID;            //ID applied to book upon pub, incrementing after each new book\r\n\r\n    function BookPub(address bookAuthor){\r\n        bookID = 0;\r\n      }\r\n    modifier isOwner() {\r\n      require(msg.sender == owner);\r\n      _;}           //Owner of BookPub Platform\r\n    modifier isAuthor() {\r\n      //  require(authors[msg.sender].totalEarned == 0);\r\n      _;}                                          //Author exists in Author mapping\r\n    modifier isReader() {\r\n      //    require(readers[msg.sender].readerUsername);\r\n      _;}                                          //Reader exists in Reader mapping\r\n\r\n    mapping(address => Reader) readers;\r\n    mapping(address => Author) authors;\r\n    mapping(uint => Book) books;\r\n    //mapping(uint => uint) partnerShares;\r\n    mapping(uint=>mapping(uint=>uint)) partnerShares;\r\n    //Reader details [readersUsername, bookIDs purchased array]\r\n    struct Reader {\r\n      bytes readerUsername;      //Reader's username\r\n      bool eligible;\r\n      //uint[] booksPurchased;       //BookIDs of all owned books\r\n      }\r\n    //Author details [authorName, totalEarned, bookID published array]\r\n    struct Author {\r\n       bytes authorName;          //Author's legal name\r\n       uint totalEarned;            //How much has this writer earned?\r\n       //uint[] booksPublished;       //BookIDs of all published books\r\n      }\r\n\r\n    //Book details [bookID, authorAddress, readershipStake, readers array]\r\n    struct Book {\r\n      uint bookID;                 //Global book ID ++1\r\n      address authorAddress;       //Who was the author? Can be used to access Authors mapping\r\n      uint readershipStake;\r\n      //uint[] Partners;\r\n      uint numPartners;\r\n      uint goal\t;\r\n      uint eligibleCount;\r\n\t    uint startdate;\r\n\t    uint enddate;\r\n      uint coinAmount;\r\n\t    string tokenName;\r\n\t    string tokenSymbol;\r\n\t    string governanceModel;\r\n\t  //How much equity did the author provision for readers?\r\n      }\r\n    function addPartner(uint _bookID,uint _share){\r\n      uint i=books[bookID].numPartners;\r\n\t    partnerShares[_bookID][i]=_share;\r\n\r\n      books[_bookID].numPartners=i+1;\r\n    }\r\n    function becomeReader(bytes _readerUsername) {\r\n      //Reader signs up to buy book coins\r\n      readers[msg.sender] = Reader({\r\n                                  readerUsername: _readerUsername,\r\n                                  eligible: false\r\n                                  });\r\n                                }\r\n    function becomeAuthor(bytes _authorName) {\r\n      //Author signs up to publish\r\n      authors[msg.sender] = Author({\r\n                                  authorName: _authorName,\r\n                                  totalEarned: 0\r\n                                  });\r\n                                }\r\n\r\n\r\n\r\n    function publishBook (uint _readershipStake,string _tokenName,string _tokenSymbol,string _governanceModel)\r\n      isAuthor() {\r\n       bookID += 1;\r\n\t\t   uint t=10;\r\n       //uint[] memory P = new uint[](10);//default 10 possible partners (possibly add option for more or less)\r\n\t\t   //uint[]  P;\r\n\t\t   //P[1]=12;\r\n\r\n        books[bookID] = Book({\r\n                            bookID: bookID,\r\n                            authorAddress: msg.sender,\r\n                            readershipStake: _readershipStake,\r\n                            tokenName:_tokenName,\r\n                            tokenSymbol:_tokenSymbol,\r\n\t\t\t\t\t\t\t              governanceModel:_governanceModel,\r\n\t\t\t\t\t\t\t              goal:t,\r\n\t\t\t\t\t\t                startdate:t,\r\n\t \t\t\t\t\t\t              enddate:t,\r\n\t \t\t\t\t\t\t              eligibleCount:t,\r\n\t\t\t\t\t\t               //\tPartners:P,\r\n                            numPartners:0,\r\n                            coinAmount:0\r\n                            });\r\n                          }\r\n  function modifyBook(uint _bookID,uint _goal,uint _startdate,uint _enddate,uint _eligibleCount,uint _coinAmount)\r\n\t isAuthor()   {\r\n\t              Book storage temp=books[_bookID];\r\n\t              temp.goal=_goal;\r\n\t              temp.startdate=_startdate;\r\n\t              temp.enddate=_enddate;\r\n\t              temp.eligibleCount=_eligibleCount;\r\n                temp.coinAmount= _coinAmount;\r\n   }\r\n   function structRet(uint n)  public returns(uint){\r\n     Book memory b= books[n];\r\n     return b.readershipStake;\r\n\r\n   }\r\n   function nameret(uint n)  public returns(string){\r\n     Book memory b= books[n];\r\n     return b.tokenName;\r\n\r\n   }\r\n   function symbolret(uint n)  public returns(string){\r\n     Book memory b= books[n];\r\n     return b.tokenSymbol;\r\n\r\n   }\r\n   function getBook(uint n) public  returns (Book) {\r\n     return books[n];\r\n   }\r\n   function getOtherparams(uint n) returns(uint,uint,uint,uint,uint){\r\n     Book memory b= books[n];\r\n     return(b.goal,b.startdate,b.enddate,b.eligibleCount,b.coinAmount);\r\n\r\n }\r\n  function getPartnerShare(uint n,uint m) public  returns (uint) {\r\n    return  partnerShares[n][m];\r\n  }\r\n  function returnallShares(uint n) public returns (uint[]){\r\n    Book memory B=books[n];\r\n    uint sz=B.numPartners;\r\n    uint[] memory P = new uint[](sz);\r\n    for(uint i=0;i<sz;i++){\r\n    P[i]=getPartnerShare(n,i);\r\n\r\n  }\r\n  return P;\r\n}\r\n}\r\n",
  "sourcePath": "/Users/marius/wip/BookPub/contracts/BookPub.sol",
  "compiler": {
    "name": "solc",
    "version": "0.4.18+commit.9cf6e910.Emscripten.clang"
  },
  "schemaVersion": "1.0.1",
  "updatedAt": "2018-01-28T18:47:14.673Z"
}